{
  "contractName": "StudentRegister",
  "abi": [
    {
      "inputs": [
        {
          "internalType": "uint256",
          "name": "",
          "type": "uint256"
        }
      ],
      "name": "studs",
      "outputs": [
        {
          "internalType": "uint256",
          "name": "rollno",
          "type": "uint256"
        },
        {
          "internalType": "string",
          "name": "name",
          "type": "string"
        },
        {
          "internalType": "string",
          "name": "location",
          "type": "string"
        },
        {
          "internalType": "uint256",
          "name": "percentage",
          "type": "uint256"
        }
      ],
      "stateMutability": "view",
      "type": "function",
      "constant": true
    },
    {
      "inputs": [
        {
          "internalType": "uint256",
          "name": "_rollno",
          "type": "uint256"
        },
        {
          "internalType": "string",
          "name": "_name",
          "type": "string"
        },
        {
          "internalType": "string",
          "name": "_location",
          "type": "string"
        },
        {
          "internalType": "uint256",
          "name": "_percentage",
          "type": "uint256"
        }
      ],
      "name": "addStudent",
      "outputs": [],
      "stateMutability": "nonpayable",
      "type": "function"
    },
    {
      "inputs": [
        {
          "internalType": "uint256",
          "name": "_rollno",
          "type": "uint256"
        }
      ],
      "name": "checkStudent",
      "outputs": [
        {
          "internalType": "uint256",
          "name": "",
          "type": "uint256"
        }
      ],
      "stateMutability": "view",
      "type": "function",
      "constant": true
    },
    {
      "inputs": [
        {
          "internalType": "uint256",
          "name": "_rollno",
          "type": "uint256"
        }
      ],
      "name": "showStudent",
      "outputs": [
        {
          "internalType": "uint256",
          "name": "",
          "type": "uint256"
        },
        {
          "internalType": "string",
          "name": "",
          "type": "string"
        },
        {
          "internalType": "string",
          "name": "",
          "type": "string"
        },
        {
          "internalType": "uint256",
          "name": "",
          "type": "uint256"
        }
      ],
      "stateMutability": "view",
      "type": "function",
      "constant": true
    }
  ],
  "bytecode": "0x608060405234801561001057600080fd5b50610d4a806100206000396000f3fe608060405234801561001057600080fd5b506004361061004c5760003560e01c80630c09f89b14610051578063531c7c3214610081578063c53e5d941461009d578063e5c98757146100d0575b600080fd5b61006b60048036038101906100669190610682565b610103565b60405161007891906106be565b60405180910390f35b61009b6004803603810190610096919061081f565b610168565b005b6100b760048036038101906100b29190610682565b610259565b6040516100c7949392919061093d565b60405180910390f35b6100ea60048036038101906100e59190610682565b6104f8565b6040516100fa949392919061093d565b60405180910390f35b6000806000905060005b60008054905081101561015e57836000828154811061012f5761012e610990565b5b9060005260206000209060040201600001540361014b57600191505b8080610156906109ee565b91505061010d565b5080915050919050565b6000604051806080016040528086815260200185815260200184815260200183815250905060008190806001815401808255809150506001900390600052602060002090600402016000909190919091506000820151816000015560208201518160010190816101d89190610c42565b5060408201518160020190816101ee9190610c42565b50606082015181600301555050806001600087815260200190815260200160002060008201518160000155602082015181600101908161022e9190610c42565b5060408201518160020190816102449190610c42565b50606082015181600301559050505050505050565b60006060806000806000905060005b60008054905081101561047557866000828154811061028a57610289610990565b5b906000526020600020906004020160000154036104625760019150600081815481106102b9576102b8610990565b5b906000526020600020906004020160000154600082815481106102df576102de610990565b5b90600052602060002090600402016001016000838154811061030457610303610990565b5b90600052602060002090600402016002016000848154811061032957610328610990565b5b90600052602060002090600402016003015482805461034790610a65565b80601f016020809104026020016040519081016040528092919081815260200182805461037390610a65565b80156103c05780601f10610395576101008083540402835291602001916103c0565b820191906000526020600020905b8154815290600101906020018083116103a357829003601f168201915b505050505092508180546103d390610a65565b80601f01602080910402602001604051908101604052809291908181526020018280546103ff90610a65565b801561044c5780601f106104215761010080835404028352916020019161044c565b820191906000526020600020905b81548152906001019060200180831161042f57829003601f168201915b50505050509150955095509550955050506104f1565b808061046d906109ee565b915050610268565b506000806040518060400160405280600981526020017f4e6f742065786973740000000000000000000000000000000000000000000000815250906040518060400160405280600181526020017f3000000000000000000000000000000000000000000000000000000000000000815250909450945094509450505b9193509193565b600160205280600052604060002060009150905080600001549080600101805461052190610a65565b80601f016020809104026020016040519081016040528092919081815260200182805461054d90610a65565b801561059a5780601f1061056f5761010080835404028352916020019161059a565b820191906000526020600020905b81548152906001019060200180831161057d57829003601f168201915b5050505050908060020180546105af90610a65565b80601f01602080910402602001604051908101604052809291908181526020018280546105db90610a65565b80156106285780601f106105fd57610100808354040283529160200191610628565b820191906000526020600020905b81548152906001019060200180831161060b57829003601f168201915b5050505050908060030154905084565b6000604051905090565b600080fd5b600080fd5b6000819050919050565b61065f8161064c565b811461066a57600080fd5b50565b60008135905061067c81610656565b92915050565b60006020828403121561069857610697610642565b5b60006106a68482850161066d565b91505092915050565b6106b88161064c565b82525050565b60006020820190506106d360008301846106af565b92915050565b600080fd5b600080fd5b6000601f19601f8301169050919050565b7f4e487b7100000000000000000000000000000000000000000000000000000000600052604160045260246000fd5b61072c826106e3565b810181811067ffffffffffffffff8211171561074b5761074a6106f4565b5b80604052505050565b600061075e610638565b905061076a8282610723565b919050565b600067ffffffffffffffff82111561078a576107896106f4565b5b610793826106e3565b9050602081019050919050565b82818337600083830152505050565b60006107c26107bd8461076f565b610754565b9050828152602081018484840111156107de576107dd6106de565b5b6107e98482856107a0565b509392505050565b600082601f830112610806576108056106d9565b5b81356108168482602086016107af565b91505092915050565b6000806000806080858703121561083957610838610642565b5b60006108478782880161066d565b945050602085013567ffffffffffffffff81111561086857610867610647565b5b610874878288016107f1565b935050604085013567ffffffffffffffff81111561089557610894610647565b5b6108a1878288016107f1565b92505060606108b28782880161066d565b91505092959194509250565b600081519050919050565b600082825260208201905092915050565b60005b838110156108f85780820151818401526020810190506108dd565b60008484015250505050565b600061090f826108be565b61091981856108c9565b93506109298185602086016108da565b610932816106e3565b840191505092915050565b600060808201905061095260008301876106af565b81810360208301526109648186610904565b905081810360408301526109788185610904565b905061098760608301846106af565b95945050505050565b7f4e487b7100000000000000000000000000000000000000000000000000000000600052603260045260246000fd5b7f4e487b7100000000000000000000000000000000000000000000000000000000600052601160045260246000fd5b60006109f98261064c565b91507fffffffffffffffffffffffffffffffffffffffffffffffffffffffffffffffff8203610a2b57610a2a6109bf565b5b600182019050919050565b7f4e487b7100000000000000000000000000000000000000000000000000000000600052602260045260246000fd5b60006002820490506001821680610a7d57607f821691505b602082108103610a9057610a8f610a36565b5b50919050565b60008190508160005260206000209050919050565b60006020601f8301049050919050565b600082821b905092915050565b600060088302610af87fffffffffffffffffffffffffffffffffffffffffffffffffffffffffffffffff82610abb565b610b028683610abb565b95508019841693508086168417925050509392505050565b6000819050919050565b6000610b3f610b3a610b358461064c565b610b1a565b61064c565b9050919050565b6000819050919050565b610b5983610b24565b610b6d610b6582610b46565b848454610ac8565b825550505050565b600090565b610b82610b75565b610b8d818484610b50565b505050565b5b81811015610bb157610ba6600082610b7a565b600181019050610b93565b5050565b601f821115610bf657610bc781610a96565b610bd084610aab565b81016020851015610bdf578190505b610bf3610beb85610aab565b830182610b92565b50505b505050565b600082821c905092915050565b6000610c1960001984600802610bfb565b1980831691505092915050565b6000610c328383610c08565b9150826002028217905092915050565b610c4b826108be565b67ffffffffffffffff811115610c6457610c636106f4565b5b610c6e8254610a65565b610c79828285610bb5565b600060209050601f831160018114610cac5760008415610c9a578287015190505b610ca48582610c26565b865550610d0c565b601f198416610cba86610a96565b60005b82811015610ce257848901518255600182019150602085019450602081019050610cbd565b86831015610cff5784890151610cfb601f891682610c08565b8355505b6001600288020188555050505b50505050505056fea264697066735822122088ce602b7d761c3e515e3754e6677a4da669d29eef967c610c81719af1f57e2264736f6c63430008100033",
  "immutableReferences": {},
  "source": "// SPDX-License-Identifier: MIT\n\npragma solidity ^0.8;\n\ncontract StudentRegister {\n    // structure for student\n    struct Student {\n        uint rollno;\n        string name;\n        string location;\n        uint percentage;\n    }\n\n    // Creating array of student structure\n    Student[] person;\n    mapping(uint => Student) public studs;\n\n    // Function to add students into the student structure\n    function addStudent(uint _rollno, string memory _name, string memory _location, uint _percentage) public {\n        Student memory x = Student(_rollno, _name, _location, _percentage);\n        person.push(x);\n        studs[_rollno] = x;\n    }\n\n    // Function to check whether the student exist or not\n    function checkStudent(uint _rollno) view public returns(uint) {\n        uint _find = 0;\n        for (uint _i = 0; _i < person.length; _i++) {\n            if (person[_i].rollno == _rollno) {\n                _find = 1;\n            }\n        }\n\n        return (_find);\n    }\n\n    // Function to show the details of the students by providing roll number\n    function showStudent(uint _rollno) view public returns (uint, string memory, string memory, uint) {\n        uint _flag = 0;\n        for (uint _i = 0; _i < person.length; _i++) {\n            if (person[_i].rollno == _rollno) {\n                _flag = 1;\n                return (person[_i].rollno, person[_i].name, person[_i].location, person[_i].percentage);\n            }\n        }\n        \n        return (0, \"Not exist\", \"0\", 0);\n\n    }\n}",
  "sourcePath": "/home/kids/Documents/GitHub/pmposhan/contracts/StudentRegister.sol",
  "compiler": {
    "name": "solc",
    "version": "0.8.16+commit.07a7930e.Emscripten.clang"
  },
  "schemaVersion": "3.4.9",
  "updatedAt": "2022-09-13T08:16:52.229Z",
  "networkType": "ethereum",
  "devdoc": {
    "kind": "dev",
    "methods": {},
    "version": 1
  },
  "userdoc": {
    "kind": "user",
    "methods": {},
    "version": 1
  }
}