{
  "contractName": "userRegister",
  "abi": [
    {
      "inputs": [],
      "name": "_b_id",
      "outputs": [
        {
          "internalType": "uint256",
          "name": "",
          "type": "uint256"
        }
      ],
      "stateMutability": "view",
      "type": "function",
      "constant": true
    },
    {
      "inputs": [],
      "name": "_d_id",
      "outputs": [
        {
          "internalType": "uint256",
          "name": "",
          "type": "uint256"
        }
      ],
      "stateMutability": "view",
      "type": "function",
      "constant": true
    },
    {
      "inputs": [],
      "name": "_s_id",
      "outputs": [
        {
          "internalType": "uint256",
          "name": "",
          "type": "uint256"
        }
      ],
      "stateMutability": "view",
      "type": "function",
      "constant": true
    },
    {
      "inputs": [],
      "name": "_st_id",
      "outputs": [
        {
          "internalType": "uint256",
          "name": "",
          "type": "uint256"
        }
      ],
      "stateMutability": "view",
      "type": "function",
      "constant": true
    },
    {
      "inputs": [
        {
          "internalType": "address",
          "name": "",
          "type": "address"
        }
      ],
      "name": "b_data",
      "outputs": [
        {
          "internalType": "string",
          "name": "b_officername",
          "type": "string"
        },
        {
          "internalType": "uint256",
          "name": "b_phone",
          "type": "uint256"
        },
        {
          "internalType": "string",
          "name": "b_email",
          "type": "string"
        },
        {
          "internalType": "string",
          "name": "b_state",
          "type": "string"
        },
        {
          "internalType": "string",
          "name": "b_district",
          "type": "string"
        },
        {
          "internalType": "string",
          "name": "b_name",
          "type": "string"
        },
        {
          "internalType": "address",
          "name": "b_Address",
          "type": "address"
        },
        {
          "internalType": "string",
          "name": "u_type",
          "type": "string"
        }
      ],
      "stateMutability": "view",
      "type": "function",
      "constant": true
    },
    {
      "inputs": [
        {
          "internalType": "address",
          "name": "",
          "type": "address"
        }
      ],
      "name": "d_data",
      "outputs": [
        {
          "internalType": "uint256",
          "name": "d_id",
          "type": "uint256"
        },
        {
          "internalType": "string",
          "name": "d_officername",
          "type": "string"
        },
        {
          "internalType": "uint256",
          "name": "d_phone",
          "type": "uint256"
        },
        {
          "internalType": "string",
          "name": "d_email",
          "type": "string"
        },
        {
          "internalType": "string",
          "name": "d_state",
          "type": "string"
        },
        {
          "internalType": "string",
          "name": "d_name",
          "type": "string"
        },
        {
          "internalType": "address",
          "name": "d_Address",
          "type": "address"
        },
        {
          "internalType": "string",
          "name": "u_type",
          "type": "string"
        }
      ],
      "stateMutability": "view",
      "type": "function",
      "constant": true
    },
    {
      "inputs": [
        {
          "internalType": "address",
          "name": "",
          "type": "address"
        }
      ],
      "name": "school_data",
      "outputs": [
        {
          "internalType": "uint256",
          "name": "s_id",
          "type": "uint256"
        },
        {
          "internalType": "string",
          "name": "s_name",
          "type": "string"
        },
        {
          "internalType": "uint256",
          "name": "s_phone",
          "type": "uint256"
        },
        {
          "internalType": "string",
          "name": "s_email",
          "type": "string"
        },
        {
          "internalType": "string",
          "name": "s_state",
          "type": "string"
        },
        {
          "internalType": "string",
          "name": "s_district",
          "type": "string"
        },
        {
          "internalType": "string",
          "name": "s_block",
          "type": "string"
        },
        {
          "internalType": "string",
          "name": "s_address",
          "type": "string"
        },
        {
          "internalType": "address",
          "name": "sAddress",
          "type": "address"
        },
        {
          "internalType": "string",
          "name": "u_type",
          "type": "string"
        }
      ],
      "stateMutability": "view",
      "type": "function",
      "constant": true
    },
    {
      "inputs": [
        {
          "internalType": "address",
          "name": "",
          "type": "address"
        }
      ],
      "name": "st_data",
      "outputs": [
        {
          "internalType": "string",
          "name": "st_officername",
          "type": "string"
        },
        {
          "internalType": "uint256",
          "name": "st_phone",
          "type": "uint256"
        },
        {
          "internalType": "string",
          "name": "st_email",
          "type": "string"
        },
        {
          "internalType": "string",
          "name": "st_name",
          "type": "string"
        },
        {
          "internalType": "address",
          "name": "st_Address",
          "type": "address"
        },
        {
          "internalType": "string",
          "name": "u_type",
          "type": "string"
        }
      ],
      "stateMutability": "view",
      "type": "function",
      "constant": true
    },
    {
      "inputs": [
        {
          "internalType": "uint256",
          "name": "s_id",
          "type": "uint256"
        },
        {
          "internalType": "string",
          "name": "s_name",
          "type": "string"
        },
        {
          "internalType": "uint256",
          "name": "s_phone",
          "type": "uint256"
        },
        {
          "internalType": "string",
          "name": "s_email",
          "type": "string"
        },
        {
          "internalType": "string",
          "name": "s_state",
          "type": "string"
        },
        {
          "internalType": "string",
          "name": "s_district",
          "type": "string"
        },
        {
          "internalType": "string",
          "name": "s_block",
          "type": "string"
        },
        {
          "internalType": "string",
          "name": "s_address",
          "type": "string"
        },
        {
          "internalType": "address",
          "name": "sAddress",
          "type": "address"
        },
        {
          "internalType": "string",
          "name": "u_type",
          "type": "string"
        }
      ],
      "name": "add_school",
      "outputs": [],
      "stateMutability": "nonpayable",
      "type": "function"
    },
    {
      "inputs": [
        {
          "internalType": "string",
          "name": "b_officername",
          "type": "string"
        },
        {
          "internalType": "uint256",
          "name": "b_phone",
          "type": "uint256"
        },
        {
          "internalType": "string",
          "name": "b_email",
          "type": "string"
        },
        {
          "internalType": "string",
          "name": "b_state",
          "type": "string"
        },
        {
          "internalType": "string",
          "name": "b_district",
          "type": "string"
        },
        {
          "internalType": "string",
          "name": "b_name",
          "type": "string"
        },
        {
          "internalType": "address",
          "name": "b_Address",
          "type": "address"
        },
        {
          "internalType": "string",
          "name": "u_type",
          "type": "string"
        }
      ],
      "name": "add_block",
      "outputs": [],
      "stateMutability": "nonpayable",
      "type": "function"
    },
    {
      "inputs": [
        {
          "internalType": "uint256",
          "name": "d_id",
          "type": "uint256"
        },
        {
          "internalType": "string",
          "name": "d_officername",
          "type": "string"
        },
        {
          "internalType": "uint256",
          "name": "d_phone",
          "type": "uint256"
        },
        {
          "internalType": "string",
          "name": "d_email",
          "type": "string"
        },
        {
          "internalType": "string",
          "name": "d_state",
          "type": "string"
        },
        {
          "internalType": "string",
          "name": "d_name",
          "type": "string"
        },
        {
          "internalType": "address",
          "name": "d_Address",
          "type": "address"
        },
        {
          "internalType": "string",
          "name": "u_type",
          "type": "string"
        }
      ],
      "name": "add_district",
      "outputs": [],
      "stateMutability": "nonpayable",
      "type": "function"
    },
    {
      "inputs": [
        {
          "internalType": "string",
          "name": "st_officername",
          "type": "string"
        },
        {
          "internalType": "uint256",
          "name": "st_phone",
          "type": "uint256"
        },
        {
          "internalType": "string",
          "name": "st_email",
          "type": "string"
        },
        {
          "internalType": "string",
          "name": "st_name",
          "type": "string"
        },
        {
          "internalType": "address",
          "name": "st_Address",
          "type": "address"
        },
        {
          "internalType": "string",
          "name": "u_type",
          "type": "string"
        }
      ],
      "name": "add_state",
      "outputs": [],
      "stateMutability": "nonpayable",
      "type": "function"
    },
    {
      "inputs": [
        {
          "internalType": "address",
          "name": "acad",
          "type": "address"
        }
      ],
      "name": "checkschool",
      "outputs": [
        {
          "internalType": "uint256",
          "name": "",
          "type": "uint256"
        }
      ],
      "stateMutability": "view",
      "type": "function",
      "constant": true
    },
    {
      "inputs": [
        {
          "internalType": "address",
          "name": "acad",
          "type": "address"
        }
      ],
      "name": "checkblock",
      "outputs": [
        {
          "internalType": "uint256",
          "name": "",
          "type": "uint256"
        }
      ],
      "stateMutability": "view",
      "type": "function",
      "constant": true
    },
    {
      "inputs": [
        {
          "internalType": "address",
          "name": "acad",
          "type": "address"
        }
      ],
      "name": "checkdistrict",
      "outputs": [
        {
          "internalType": "uint256",
          "name": "",
          "type": "uint256"
        }
      ],
      "stateMutability": "view",
      "type": "function",
      "constant": true
    },
    {
      "inputs": [
        {
          "internalType": "address",
          "name": "acad",
          "type": "address"
        }
      ],
      "name": "checkstate",
      "outputs": [
        {
          "internalType": "uint256",
          "name": "",
          "type": "uint256"
        }
      ],
      "stateMutability": "view",
      "type": "function",
      "constant": true
    },
    {
      "inputs": [
        {
          "internalType": "address",
          "name": "s_acad",
          "type": "address"
        }
      ],
      "name": "showschool",
      "outputs": [
        {
          "internalType": "uint256",
          "name": "",
          "type": "uint256"
        },
        {
          "internalType": "string",
          "name": "",
          "type": "string"
        },
        {
          "internalType": "uint256",
          "name": "",
          "type": "uint256"
        },
        {
          "internalType": "string",
          "name": "",
          "type": "string"
        },
        {
          "internalType": "string",
          "name": "",
          "type": "string"
        },
        {
          "internalType": "string",
          "name": "",
          "type": "string"
        },
        {
          "internalType": "string",
          "name": "",
          "type": "string"
        }
      ],
      "stateMutability": "view",
      "type": "function",
      "constant": true
    },
    {
      "inputs": [
        {
          "internalType": "address",
          "name": "b_acad",
          "type": "address"
        }
      ],
      "name": "showblock",
      "outputs": [
        {
          "internalType": "string",
          "name": "",
          "type": "string"
        },
        {
          "internalType": "uint256",
          "name": "",
          "type": "uint256"
        },
        {
          "internalType": "string",
          "name": "",
          "type": "string"
        },
        {
          "internalType": "string",
          "name": "",
          "type": "string"
        },
        {
          "internalType": "string",
          "name": "",
          "type": "string"
        },
        {
          "internalType": "string",
          "name": "",
          "type": "string"
        },
        {
          "internalType": "address",
          "name": "",
          "type": "address"
        }
      ],
      "stateMutability": "view",
      "type": "function",
      "constant": true
    },
    {
      "inputs": [
        {
          "internalType": "address",
          "name": "d_acad",
          "type": "address"
        }
      ],
      "name": "showdistrict",
      "outputs": [
        {
          "internalType": "string",
          "name": "",
          "type": "string"
        },
        {
          "internalType": "uint256",
          "name": "",
          "type": "uint256"
        },
        {
          "internalType": "string",
          "name": "",
          "type": "string"
        },
        {
          "internalType": "string",
          "name": "",
          "type": "string"
        },
        {
          "internalType": "string",
          "name": "",
          "type": "string"
        },
        {
          "internalType": "address",
          "name": "",
          "type": "address"
        }
      ],
      "stateMutability": "view",
      "type": "function",
      "constant": true
    },
    {
      "inputs": [
        {
          "internalType": "address",
          "name": "st_acad",
          "type": "address"
        }
      ],
      "name": "showstate",
      "outputs": [
        {
          "internalType": "string",
          "name": "",
          "type": "string"
        },
        {
          "internalType": "uint256",
          "name": "",
          "type": "uint256"
        },
        {
          "internalType": "string",
          "name": "",
          "type": "string"
        },
        {
          "internalType": "string",
          "name": "",
          "type": "string"
        },
        {
          "internalType": "address",
          "name": "",
          "type": "address"
        }
      ],
      "stateMutability": "view",
      "type": "function",
      "constant": true
    }
  ],
  "bytecode": "0x60806040526000805560006001556000600255600060035534801561002357600080fd5b50613fa1806100336000396000f3fe608060405234801561001057600080fd5b506004361061012b5760003560e01c8063746b7a94116100ad5780639e49aff6116100715780639e49aff6146103c4578063e7f88121146103e2578063ec68d06914610400578063ed1af07914610437578063ee3c9b5b1461046b5761012b565b8063746b7a941461030357806377992d09146103395780637f7ccf1e1461035557806394bc5ff91461037357806398dec30d1461038f5761012b565b80634f6e3a83116100f45780634f6e3a831461021b5780635a895779146102375780636103ceac146102675780636c1f828a1461029e57806372fc8c88146102d35761012b565b8062217830146101305780631d8e365d14610169578063299817e11461019f5780633a1a4d72146101cf57806341ea5c6d146101eb575b600080fd5b61014a60048036038101906101459190612faa565b610489565b6040516101609a9998979695949392919061308f565b60405180910390f35b610183600480360381019061017e9190612faa565b6108b5565b604051610196979695949392919061315c565b60405180910390f35b6101b960048036038101906101b49190612faa565b610d66565b6040516101c691906131ee565b60405180910390f35b6101e960048036038101906101e4919061336a565b610e17565b005b61020560048036038101906102009190612faa565b61102a565b60405161021291906131ee565b60405180910390f35b61023560048036038101906102309190613467565b6110db565b005b610251600480360381019061024c9190612faa565b6113c3565b60405161025e91906131ee565b60405180910390f35b610281600480360381019061027c9190612faa565b611474565b60405161029598979695949392919061360a565b60405180910390f35b6102b860048036038101906102b39190612faa565b611784565b6040516102ca969594939291906136ab565b60405180910390f35b6102ed60048036038101906102e89190612faa565b611a00565b6040516102fa91906131ee565b60405180910390f35b61031d60048036038101906103189190612faa565b611ab1565b6040516103309796959493929190613728565b60405180910390f35b610353600480360381019061034e91906137ba565b611f82565b005b61035d6121fc565b60405161036a91906131ee565b60405180910390f35b61038d60048036038101906103889190613918565b612202565b005b6103a960048036038101906103a49190612faa565b612464565b6040516103bb96959493929190613a5a565b60405180910390f35b6103cc612862565b6040516103d991906131ee565b60405180910390f35b6103ea612868565b6040516103f791906131ee565b60405180910390f35b61041a60048036038101906104159190612faa565b61286e565b60405161042e989796959493929190613ad7565b60405180910390f35b610451600480360381019061044c9190612faa565b612c06565b604051610462959493929190613b7f565b60405180910390f35b610473612f32565b60405161048091906131ee565b60405180910390f35b60046020528060005260406000206000915090508060000154908060010180546104b290613c16565b80601f01602080910402602001604051908101604052809291908181526020018280546104de90613c16565b801561052b5780601f106105005761010080835404028352916020019161052b565b820191906000526020600020905b81548152906001019060200180831161050e57829003601f168201915b50505050509080600201549080600301805461054690613c16565b80601f016020809104026020016040519081016040528092919081815260200182805461057290613c16565b80156105bf5780601f10610594576101008083540402835291602001916105bf565b820191906000526020600020905b8154815290600101906020018083116105a257829003601f168201915b5050505050908060040180546105d490613c16565b80601f016020809104026020016040519081016040528092919081815260200182805461060090613c16565b801561064d5780601f106106225761010080835404028352916020019161064d565b820191906000526020600020905b81548152906001019060200180831161063057829003601f168201915b50505050509080600501805461066290613c16565b80601f016020809104026020016040519081016040528092919081815260200182805461068e90613c16565b80156106db5780601f106106b0576101008083540402835291602001916106db565b820191906000526020600020905b8154815290600101906020018083116106be57829003601f168201915b5050505050908060060180546106f090613c16565b80601f016020809104026020016040519081016040528092919081815260200182805461071c90613c16565b80156107695780601f1061073e57610100808354040283529160200191610769565b820191906000526020600020905b81548152906001019060200180831161074c57829003601f168201915b50505050509080600701805461077e90613c16565b80601f01602080910402602001604051908101604052809291908181526020018280546107aa90613c16565b80156107f75780601f106107cc576101008083540402835291602001916107f7565b820191906000526020600020905b8154815290600101906020018083116107da57829003601f168201915b5050505050908060080160009054906101000a900473ffffffffffffffffffffffffffffffffffffffff169080600901805461083290613c16565b80601f016020809104026020016040519081016040528092919081815260200182805461085e90613c16565b80156108ab5780601f10610880576101008083540402835291602001916108ab565b820191906000526020600020905b81548152906001019060200180831161088e57829003601f168201915b505050505090508a565b600060606000606080606080600460008973ffffffffffffffffffffffffffffffffffffffff1673ffffffffffffffffffffffffffffffffffffffff16815260200190815260200160002060000154600460008a73ffffffffffffffffffffffffffffffffffffffff1673ffffffffffffffffffffffffffffffffffffffff168152602001908152602001600020600101600460008b73ffffffffffffffffffffffffffffffffffffffff1673ffffffffffffffffffffffffffffffffffffffff16815260200190815260200160002060020154600460008c73ffffffffffffffffffffffffffffffffffffffff1673ffffffffffffffffffffffffffffffffffffffff168152602001908152602001600020600301600460008d73ffffffffffffffffffffffffffffffffffffffff1673ffffffffffffffffffffffffffffffffffffffff168152602001908152602001600020600401600460008e73ffffffffffffffffffffffffffffffffffffffff1673ffffffffffffffffffffffffffffffffffffffff168152602001908152602001600020600501600460008f73ffffffffffffffffffffffffffffffffffffffff1673ffffffffffffffffffffffffffffffffffffffff168152602001908152602001600020600601858054610a9d90613c16565b80601f0160208091040260200160405190810160405280929190818152602001828054610ac990613c16565b8015610b165780601f10610aeb57610100808354040283529160200191610b16565b820191906000526020600020905b815481529060010190602001808311610af957829003601f168201915b50505050509550838054610b2990613c16565b80601f0160208091040260200160405190810160405280929190818152602001828054610b5590613c16565b8015610ba25780601f10610b7757610100808354040283529160200191610ba2565b820191906000526020600020905b815481529060010190602001808311610b8557829003601f168201915b50505050509350828054610bb590613c16565b80601f0160208091040260200160405190810160405280929190818152602001828054610be190613c16565b8015610c2e5780601f10610c0357610100808354040283529160200191610c2e565b820191906000526020600020905b815481529060010190602001808311610c1157829003601f168201915b50505050509250818054610c4190613c16565b80601f0160208091040260200160405190810160405280929190818152602001828054610c6d90613c16565b8015610cba5780601f10610c8f57610100808354040283529160200191610cba565b820191906000526020600020905b815481529060010190602001808311610c9d57829003601f168201915b50505050509150808054610ccd90613c16565b80601f0160208091040260200160405190810160405280929190818152602001828054610cf990613c16565b8015610d465780601f10610d1b57610100808354040283529160200191610d46565b820191906000526020600020905b815481529060010190602001808311610d2957829003601f168201915b505050505090509650965096509650965096509650919395979092949650565b6000806000905060005b600780549050811015610e0d578373ffffffffffffffffffffffffffffffffffffffff1660078281548110610da857610da7613c47565b5b906000526020600020906008020160060160009054906101000a900473ffffffffffffffffffffffffffffffffffffffff1673ffffffffffffffffffffffffffffffffffffffff1603610dfa57600191505b8080610e0590613ca5565b915050610d70565b5080915050919050565b60006040518060c001604052808881526020018781526020018681526020018581526020018473ffffffffffffffffffffffffffffffffffffffff168152602001838152509050600b8190806001815401808255809150506001900390600052602060002090600602016000909190919091506000820151816000019081610e9f9190613e99565b50602082015181600101556040820151816002019081610ebf9190613e99565b506060820151816003019081610ed59190613e99565b5060808201518160040160006101000a81548173ffffffffffffffffffffffffffffffffffffffff021916908373ffffffffffffffffffffffffffffffffffffffff16021790555060a0820151816005019081610f329190613e99565b50505080600a60008573ffffffffffffffffffffffffffffffffffffffff1673ffffffffffffffffffffffffffffffffffffffff1681526020019081526020016000206000820151816000019081610f8a9190613e99565b50602082015181600101556040820151816002019081610faa9190613e99565b506060820151816003019081610fc09190613e99565b5060808201518160040160006101000a81548173ffffffffffffffffffffffffffffffffffffffff021916908373ffffffffffffffffffffffffffffffffffffffff16021790555060a082015181600501908161101d9190613e99565b5090505050505050505050565b6000806000905060005b600b805490508110156110d1578373ffffffffffffffffffffffffffffffffffffffff16600b828154811061106c5761106b613c47565b5b906000526020600020906006020160040160009054906101000a900473ffffffffffffffffffffffffffffffffffffffff1673ffffffffffffffffffffffffffffffffffffffff16036110be57600191505b80806110c990613ca5565b915050611034565b5080915050919050565b6000808154809291906110ed90613ca5565b9190505560008190555060006040518061014001604052808c81526020018b81526020018a81526020018981526020018881526020018781526020018681526020018581526020018473ffffffffffffffffffffffffffffffffffffffff16815260200183815250905060058190806001815401808255809150506001900390600052602060002090600a02016000909190919091506000820151816000015560208201518160010190816111a29190613e99565b506040820151816002015560608201518160030190816111c29190613e99565b5060808201518160040190816111d89190613e99565b5060a08201518160050190816111ee9190613e99565b5060c08201518160060190816112049190613e99565b5060e082015181600701908161121a9190613e99565b506101008201518160080160006101000a81548173ffffffffffffffffffffffffffffffffffffffff021916908373ffffffffffffffffffffffffffffffffffffffff1602179055506101208201518160090190816112799190613e99565b50505080600460008573ffffffffffffffffffffffffffffffffffffffff1673ffffffffffffffffffffffffffffffffffffffff1681526020019081526020016000206000820151816000015560208201518160010190816112db9190613e99565b506040820151816002015560608201518160030190816112fb9190613e99565b5060808201518160040190816113119190613e99565b5060a08201518160050190816113279190613e99565b5060c082015181600601908161133d9190613e99565b5060e08201518160070190816113539190613e99565b506101008201518160080160006101000a81548173ffffffffffffffffffffffffffffffffffffffff021916908373ffffffffffffffffffffffffffffffffffffffff1602179055506101208201518160090190816113b29190613e99565b509050505050505050505050505050565b6000806000905060005b60098054905081101561146a578373ffffffffffffffffffffffffffffffffffffffff166009828154811061140557611404613c47565b5b906000526020600020906008020160060160009054906101000a900473ffffffffffffffffffffffffffffffffffffffff1673ffffffffffffffffffffffffffffffffffffffff160361145757600191505b808061146290613ca5565b9150506113cd565b5080915050919050565b600860205280600052604060002060009150905080600001549080600101805461149d90613c16565b80601f01602080910402602001604051908101604052809291908181526020018280546114c990613c16565b80156115165780601f106114eb57610100808354040283529160200191611516565b820191906000526020600020905b8154815290600101906020018083116114f957829003601f168201915b50505050509080600201549080600301805461153190613c16565b80601f016020809104026020016040519081016040528092919081815260200182805461155d90613c16565b80156115aa5780601f1061157f576101008083540402835291602001916115aa565b820191906000526020600020905b81548152906001019060200180831161158d57829003601f168201915b5050505050908060040180546115bf90613c16565b80601f01602080910402602001604051908101604052809291908181526020018280546115eb90613c16565b80156116385780601f1061160d57610100808354040283529160200191611638565b820191906000526020600020905b81548152906001019060200180831161161b57829003601f168201915b50505050509080600501805461164d90613c16565b80601f016020809104026020016040519081016040528092919081815260200182805461167990613c16565b80156116c65780601f1061169b576101008083540402835291602001916116c6565b820191906000526020600020905b8154815290600101906020018083116116a957829003601f168201915b5050505050908060060160009054906101000a900473ffffffffffffffffffffffffffffffffffffffff169080600701805461170190613c16565b80601f016020809104026020016040519081016040528092919081815260200182805461172d90613c16565b801561177a5780601f1061174f5761010080835404028352916020019161177a565b820191906000526020600020905b81548152906001019060200180831161175d57829003601f168201915b5050505050905088565b600a6020528060005260406000206000915090508060000180546117a790613c16565b80601f01602080910402602001604051908101604052809291908181526020018280546117d390613c16565b80156118205780601f106117f557610100808354040283529160200191611820565b820191906000526020600020905b81548152906001019060200180831161180357829003601f168201915b50505050509080600101549080600201805461183b90613c16565b80601f016020809104026020016040519081016040528092919081815260200182805461186790613c16565b80156118b45780601f10611889576101008083540402835291602001916118b4565b820191906000526020600020905b81548152906001019060200180831161189757829003601f168201915b5050505050908060030180546118c990613c16565b80601f01602080910402602001604051908101604052809291908181526020018280546118f590613c16565b80156119425780601f1061191757610100808354040283529160200191611942565b820191906000526020600020905b81548152906001019060200180831161192557829003601f168201915b5050505050908060040160009054906101000a900473ffffffffffffffffffffffffffffffffffffffff169080600501805461197d90613c16565b80601f01602080910402602001604051908101604052809291908181526020018280546119a990613c16565b80156119f65780601f106119cb576101008083540402835291602001916119f6565b820191906000526020600020905b8154815290600101906020018083116119d957829003601f168201915b5050505050905086565b6000806000905060005b600580549050811015611aa7578373ffffffffffffffffffffffffffffffffffffffff1660058281548110611a4257611a41613c47565b5b90600052602060002090600a020160080160009054906101000a900473ffffffffffffffffffffffffffffffffffffffff1673ffffffffffffffffffffffffffffffffffffffff1603611a9457600191505b8080611a9f90613ca5565b915050611a0a565b5080915050919050565b606060006060806060806000600660008973ffffffffffffffffffffffffffffffffffffffff1673ffffffffffffffffffffffffffffffffffffffff168152602001908152602001600020600001600660008a73ffffffffffffffffffffffffffffffffffffffff1673ffffffffffffffffffffffffffffffffffffffff16815260200190815260200160002060010154600660008b73ffffffffffffffffffffffffffffffffffffffff1673ffffffffffffffffffffffffffffffffffffffff168152602001908152602001600020600201600660008c73ffffffffffffffffffffffffffffffffffffffff1673ffffffffffffffffffffffffffffffffffffffff168152602001908152602001600020600301600660008d73ffffffffffffffffffffffffffffffffffffffff1673ffffffffffffffffffffffffffffffffffffffff168152602001908152602001600020600401600660008e73ffffffffffffffffffffffffffffffffffffffff1673ffffffffffffffffffffffffffffffffffffffff168152602001908152602001600020600501600660008f73ffffffffffffffffffffffffffffffffffffffff1673ffffffffffffffffffffffffffffffffffffffff16815260200190815260200160002060060160009054906101000a900473ffffffffffffffffffffffffffffffffffffffff16868054611cb990613c16565b80601f0160208091040260200160405190810160405280929190818152602001828054611ce590613c16565b8015611d325780601f10611d0757610100808354040283529160200191611d32565b820191906000526020600020905b815481529060010190602001808311611d1557829003601f168201915b50505050509650848054611d4590613c16565b80601f0160208091040260200160405190810160405280929190818152602001828054611d7190613c16565b8015611dbe5780601f10611d9357610100808354040283529160200191611dbe565b820191906000526020600020905b815481529060010190602001808311611da157829003601f168201915b50505050509450838054611dd190613c16565b80601f0160208091040260200160405190810160405280929190818152602001828054611dfd90613c16565b8015611e4a5780601f10611e1f57610100808354040283529160200191611e4a565b820191906000526020600020905b815481529060010190602001808311611e2d57829003601f168201915b50505050509350828054611e5d90613c16565b80601f0160208091040260200160405190810160405280929190818152602001828054611e8990613c16565b8015611ed65780601f10611eab57610100808354040283529160200191611ed6565b820191906000526020600020905b815481529060010190602001808311611eb957829003601f168201915b50505050509250818054611ee990613c16565b80601f0160208091040260200160405190810160405280929190818152602001828054611f1590613c16565b8015611f625780601f10611f3757610100808354040283529160200191611f62565b820191906000526020600020905b815481529060010190602001808311611f4557829003601f168201915b505050505091509650965096509650965096509650919395979092949650565b60006040518061010001604052808a81526020018981526020018881526020018781526020018681526020018581526020018473ffffffffffffffffffffffffffffffffffffffff168152602001838152509050600781908060018154018082558091505060019003906000526020600020906008020160009091909190915060008201518160000190816120179190613e99565b506020820151816001015560408201518160020190816120379190613e99565b50606082015181600301908161204d9190613e99565b5060808201518160040190816120639190613e99565b5060a08201518160050190816120799190613e99565b5060c08201518160060160006101000a81548173ffffffffffffffffffffffffffffffffffffffff021916908373ffffffffffffffffffffffffffffffffffffffff16021790555060e08201518160070190816120d69190613e99565b50505080600660008573ffffffffffffffffffffffffffffffffffffffff1673ffffffffffffffffffffffffffffffffffffffff168152602001908152602001600020600082015181600001908161212e9190613e99565b5060208201518160010155604082015181600201908161214e9190613e99565b5060608201518160030190816121649190613e99565b50608082015181600401908161217a9190613e99565b5060a08201518160050190816121909190613e99565b5060c08201518160060160006101000a81548173ffffffffffffffffffffffffffffffffffffffff021916908373ffffffffffffffffffffffffffffffffffffffff16021790555060e08201518160070190816121ed9190613e99565b50905050505050505050505050565b60035481565b60006040518061010001604052808a81526020018981526020018881526020018781526020018681526020018581526020018473ffffffffffffffffffffffffffffffffffffffff16815260200183815250905060098190806001815401808255809150506001900390600052602060002090600802016000909190919091506000820151816000015560208201518160010190816122a19190613e99565b506040820151816002015560608201518160030190816122c19190613e99565b5060808201518160040190816122d79190613e99565b5060a08201518160050190816122ed9190613e99565b5060c08201518160060160006101000a81548173ffffffffffffffffffffffffffffffffffffffff021916908373ffffffffffffffffffffffffffffffffffffffff16021790555060e082015181600701908161234a9190613e99565b50505080600860008573ffffffffffffffffffffffffffffffffffffffff1673ffffffffffffffffffffffffffffffffffffffff1681526020019081526020016000206000820151816000015560208201518160010190816123ac9190613e99565b506040820151816002015560608201518160030190816123cc9190613e99565b5060808201518160040190816123e29190613e99565b5060a08201518160050190816123f89190613e99565b5060c08201518160060160006101000a81548173ffffffffffffffffffffffffffffffffffffffff021916908373ffffffffffffffffffffffffffffffffffffffff16021790555060e08201518160070190816124559190613e99565b50905050505050505050505050565b6060600060608060606000600860008873ffffffffffffffffffffffffffffffffffffffff1673ffffffffffffffffffffffffffffffffffffffff168152602001908152602001600020600101600860008973ffffffffffffffffffffffffffffffffffffffff1673ffffffffffffffffffffffffffffffffffffffff16815260200190815260200160002060020154600860008a73ffffffffffffffffffffffffffffffffffffffff1673ffffffffffffffffffffffffffffffffffffffff168152602001908152602001600020600301600860008b73ffffffffffffffffffffffffffffffffffffffff1673ffffffffffffffffffffffffffffffffffffffff168152602001908152602001600020600401600860008c73ffffffffffffffffffffffffffffffffffffffff1673ffffffffffffffffffffffffffffffffffffffff168152602001908152602001600020600501600860008d73ffffffffffffffffffffffffffffffffffffffff1673ffffffffffffffffffffffffffffffffffffffff16815260200190815260200160002060060160009054906101000a900473ffffffffffffffffffffffffffffffffffffffff1685805461262990613c16565b80601f016020809104026020016040519081016040528092919081815260200182805461265590613c16565b80156126a25780601f10612677576101008083540402835291602001916126a2565b820191906000526020600020905b81548152906001019060200180831161268557829003601f168201915b505050505095508380546126b590613c16565b80601f01602080910402602001604051908101604052809291908181526020018280546126e190613c16565b801561272e5780601f106127035761010080835404028352916020019161272e565b820191906000526020600020905b81548152906001019060200180831161271157829003601f168201915b5050505050935082805461274190613c16565b80601f016020809104026020016040519081016040528092919081815260200182805461276d90613c16565b80156127ba5780601f1061278f576101008083540402835291602001916127ba565b820191906000526020600020905b81548152906001019060200180831161279d57829003601f168201915b505050505092508180546127cd90613c16565b80601f01602080910402602001604051908101604052809291908181526020018280546127f990613c16565b80156128465780601f1061281b57610100808354040283529160200191612846565b820191906000526020600020905b81548152906001019060200180831161282957829003601f168201915b5050505050915095509550955095509550955091939550919395565b60015481565b60025481565b600660205280600052604060002060009150905080600001805461289190613c16565b80601f01602080910402602001604051908101604052809291908181526020018280546128bd90613c16565b801561290a5780601f106128df5761010080835404028352916020019161290a565b820191906000526020600020905b8154815290600101906020018083116128ed57829003601f168201915b50505050509080600101549080600201805461292590613c16565b80601f016020809104026020016040519081016040528092919081815260200182805461295190613c16565b801561299e5780601f106129735761010080835404028352916020019161299e565b820191906000526020600020905b81548152906001019060200180831161298157829003601f168201915b5050505050908060030180546129b390613c16565b80601f01602080910402602001604051908101604052809291908181526020018280546129df90613c16565b8015612a2c5780601f10612a0157610100808354040283529160200191612a2c565b820191906000526020600020905b815481529060010190602001808311612a0f57829003601f168201915b505050505090806004018054612a4190613c16565b80601f0160208091040260200160405190810160405280929190818152602001828054612a6d90613c16565b8015612aba5780601f10612a8f57610100808354040283529160200191612aba565b820191906000526020600020905b815481529060010190602001808311612a9d57829003601f168201915b505050505090806005018054612acf90613c16565b80601f0160208091040260200160405190810160405280929190818152602001828054612afb90613c16565b8015612b485780601f10612b1d57610100808354040283529160200191612b48565b820191906000526020600020905b815481529060010190602001808311612b2b57829003601f168201915b5050505050908060060160009054906101000a900473ffffffffffffffffffffffffffffffffffffffff1690806007018054612b8390613c16565b80601f0160208091040260200160405190810160405280929190818152602001828054612baf90613c16565b8015612bfc5780601f10612bd157610100808354040283529160200191612bfc565b820191906000526020600020905b815481529060010190602001808311612bdf57829003601f168201915b5050505050905088565b606060006060806000600a60008773ffffffffffffffffffffffffffffffffffffffff1673ffffffffffffffffffffffffffffffffffffffff168152602001908152602001600020600001600a60008873ffffffffffffffffffffffffffffffffffffffff1673ffffffffffffffffffffffffffffffffffffffff16815260200190815260200160002060010154600a60008973ffffffffffffffffffffffffffffffffffffffff1673ffffffffffffffffffffffffffffffffffffffff168152602001908152602001600020600201600a60008a73ffffffffffffffffffffffffffffffffffffffff1673ffffffffffffffffffffffffffffffffffffffff168152602001908152602001600020600301600a60008b73ffffffffffffffffffffffffffffffffffffffff1673ffffffffffffffffffffffffffffffffffffffff16815260200190815260200160002060040160009054906101000a900473ffffffffffffffffffffffffffffffffffffffff16848054612d8790613c16565b80601f0160208091040260200160405190810160405280929190818152602001828054612db390613c16565b8015612e005780601f10612dd557610100808354040283529160200191612e00565b820191906000526020600020905b815481529060010190602001808311612de357829003601f168201915b50505050509450828054612e1390613c16565b80601f0160208091040260200160405190810160405280929190818152602001828054612e3f90613c16565b8015612e8c5780601f10612e6157610100808354040283529160200191612e8c565b820191906000526020600020905b815481529060010190602001808311612e6f57829003601f168201915b50505050509250818054612e9f90613c16565b80601f0160208091040260200160405190810160405280929190818152602001828054612ecb90613c16565b8015612f185780601f10612eed57610100808354040283529160200191612f18565b820191906000526020600020905b815481529060010190602001808311612efb57829003601f168201915b505050505091509450945094509450945091939590929450565b60005481565b6000604051905090565b600080fd5b600080fd5b600073ffffffffffffffffffffffffffffffffffffffff82169050919050565b6000612f7782612f4c565b9050919050565b612f8781612f6c565b8114612f9257600080fd5b50565b600081359050612fa481612f7e565b92915050565b600060208284031215612fc057612fbf612f42565b5b6000612fce84828501612f95565b91505092915050565b6000819050919050565b612fea81612fd7565b82525050565b600081519050919050565b600082825260208201905092915050565b60005b8381101561302a57808201518184015260208101905061300f565b60008484015250505050565b6000601f19601f8301169050919050565b600061305282612ff0565b61305c8185612ffb565b935061306c81856020860161300c565b61307581613036565b840191505092915050565b61308981612f6c565b82525050565b6000610140820190506130a5600083018d612fe1565b81810360208301526130b7818c613047565b90506130c6604083018b612fe1565b81810360608301526130d8818a613047565b905081810360808301526130ec8189613047565b905081810360a08301526131008188613047565b905081810360c08301526131148187613047565b905081810360e08301526131288186613047565b9050613138610100830185613080565b81810361012083015261314b8184613047565b90509b9a5050505050505050505050565b600060e082019050613171600083018a612fe1565b81810360208301526131838189613047565b90506131926040830188612fe1565b81810360608301526131a48187613047565b905081810360808301526131b88186613047565b905081810360a08301526131cc8185613047565b905081810360c08301526131e08184613047565b905098975050505050505050565b60006020820190506132036000830184612fe1565b92915050565b600080fd5b600080fd5b7f4e487b7100000000000000000000000000000000000000000000000000000000600052604160045260246000fd5b61324b82613036565b810181811067ffffffffffffffff8211171561326a57613269613213565b5b80604052505050565b600061327d612f38565b90506132898282613242565b919050565b600067ffffffffffffffff8211156132a9576132a8613213565b5b6132b282613036565b9050602081019050919050565b82818337600083830152505050565b60006132e16132dc8461328e565b613273565b9050828152602081018484840111156132fd576132fc61320e565b5b6133088482856132bf565b509392505050565b600082601f83011261332557613324613209565b5b81356133358482602086016132ce565b91505092915050565b61334781612fd7565b811461335257600080fd5b50565b6000813590506133648161333e565b92915050565b60008060008060008060c0878903121561338757613386612f42565b5b600087013567ffffffffffffffff8111156133a5576133a4612f47565b5b6133b189828a01613310565b96505060206133c289828a01613355565b955050604087013567ffffffffffffffff8111156133e3576133e2612f47565b5b6133ef89828a01613310565b945050606087013567ffffffffffffffff8111156134105761340f612f47565b5b61341c89828a01613310565b935050608061342d89828a01612f95565b92505060a087013567ffffffffffffffff81111561344e5761344d612f47565b5b61345a89828a01613310565b9150509295509295509295565b6000806000806000806000806000806101408b8d03121561348b5761348a612f42565b5b60006134998d828e01613355565b9a505060208b013567ffffffffffffffff8111156134ba576134b9612f47565b5b6134c68d828e01613310565b99505060406134d78d828e01613355565b98505060608b013567ffffffffffffffff8111156134f8576134f7612f47565b5b6135048d828e01613310565b97505060808b013567ffffffffffffffff81111561352557613524612f47565b5b6135318d828e01613310565b96505060a08b013567ffffffffffffffff81111561355257613551612f47565b5b61355e8d828e01613310565b95505060c08b013567ffffffffffffffff81111561357f5761357e612f47565b5b61358b8d828e01613310565b94505060e08b013567ffffffffffffffff8111156135ac576135ab612f47565b5b6135b88d828e01613310565b9350506101006135ca8d828e01612f95565b9250506101208b013567ffffffffffffffff8111156135ec576135eb612f47565b5b6135f88d828e01613310565b9150509295989b9194979a5092959850565b600061010082019050613620600083018b612fe1565b8181036020830152613632818a613047565b90506136416040830189612fe1565b81810360608301526136538188613047565b905081810360808301526136678187613047565b905081810360a083015261367b8186613047565b905061368a60c0830185613080565b81810360e083015261369c8184613047565b90509998505050505050505050565b600060c08201905081810360008301526136c58189613047565b90506136d46020830188612fe1565b81810360408301526136e68187613047565b905081810360608301526136fa8186613047565b90506137096080830185613080565b81810360a083015261371b8184613047565b9050979650505050505050565b600060e0820190508181036000830152613742818a613047565b90506137516020830189612fe1565b81810360408301526137638188613047565b905081810360608301526137778187613047565b9050818103608083015261378b8186613047565b905081810360a083015261379f8185613047565b90506137ae60c0830184613080565b98975050505050505050565b600080600080600080600080610100898b0312156137db576137da612f42565b5b600089013567ffffffffffffffff8111156137f9576137f8612f47565b5b6138058b828c01613310565b98505060206138168b828c01613355565b975050604089013567ffffffffffffffff81111561383757613836612f47565b5b6138438b828c01613310565b965050606089013567ffffffffffffffff81111561386457613863612f47565b5b6138708b828c01613310565b955050608089013567ffffffffffffffff81111561389157613890612f47565b5b61389d8b828c01613310565b94505060a089013567ffffffffffffffff8111156138be576138bd612f47565b5b6138ca8b828c01613310565b93505060c06138db8b828c01612f95565b92505060e089013567ffffffffffffffff8111156138fc576138fb612f47565b5b6139088b828c01613310565b9150509295985092959890939650565b600080600080600080600080610100898b03121561393957613938612f42565b5b60006139478b828c01613355565b985050602089013567ffffffffffffffff81111561396857613967612f47565b5b6139748b828c01613310565b97505060406139858b828c01613355565b965050606089013567ffffffffffffffff8111156139a6576139a5612f47565b5b6139b28b828c01613310565b955050608089013567ffffffffffffffff8111156139d3576139d2612f47565b5b6139df8b828c01613310565b94505060a089013567ffffffffffffffff811115613a00576139ff612f47565b5b613a0c8b828c01613310565b93505060c0613a1d8b828c01612f95565b92505060e089013567ffffffffffffffff811115613a3e57613a3d612f47565b5b613a4a8b828c01613310565b9150509295985092959890939650565b600060c0820190508181036000830152613a748189613047565b9050613a836020830188612fe1565b8181036040830152613a958187613047565b90508181036060830152613aa98186613047565b90508181036080830152613abd8185613047565b9050613acc60a0830184613080565b979650505050505050565b6000610100820190508181036000830152613af2818b613047565b9050613b01602083018a612fe1565b8181036040830152613b138189613047565b90508181036060830152613b278188613047565b90508181036080830152613b3b8187613047565b905081810360a0830152613b4f8186613047565b9050613b5e60c0830185613080565b81810360e0830152613b708184613047565b90509998505050505050505050565b600060a0820190508181036000830152613b998188613047565b9050613ba86020830187612fe1565b8181036040830152613bba8186613047565b90508181036060830152613bce8185613047565b9050613bdd6080830184613080565b9695505050505050565b7f4e487b7100000000000000000000000000000000000000000000000000000000600052602260045260246000fd5b60006002820490506001821680613c2e57607f821691505b602082108103613c4157613c40613be7565b5b50919050565b7f4e487b7100000000000000000000000000000000000000000000000000000000600052603260045260246000fd5b7f4e487b7100000000000000000000000000000000000000000000000000000000600052601160045260246000fd5b6000613cb082612fd7565b91507fffffffffffffffffffffffffffffffffffffffffffffffffffffffffffffffff8203613ce257613ce1613c76565b5b600182019050919050565b60008190508160005260206000209050919050565b60006020601f8301049050919050565b600082821b905092915050565b600060088302613d4f7fffffffffffffffffffffffffffffffffffffffffffffffffffffffffffffffff82613d12565b613d598683613d12565b95508019841693508086168417925050509392505050565b6000819050919050565b6000613d96613d91613d8c84612fd7565b613d71565b612fd7565b9050919050565b6000819050919050565b613db083613d7b565b613dc4613dbc82613d9d565b848454613d1f565b825550505050565b600090565b613dd9613dcc565b613de4818484613da7565b505050565b5b81811015613e0857613dfd600082613dd1565b600181019050613dea565b5050565b601f821115613e4d57613e1e81613ced565b613e2784613d02565b81016020851015613e36578190505b613e4a613e4285613d02565b830182613de9565b50505b505050565b600082821c905092915050565b6000613e7060001984600802613e52565b1980831691505092915050565b6000613e898383613e5f565b9150826002028217905092915050565b613ea282612ff0565b67ffffffffffffffff811115613ebb57613eba613213565b5b613ec58254613c16565b613ed0828285613e0c565b600060209050601f831160018114613f035760008415613ef1578287015190505b613efb8582613e7d565b865550613f63565b601f198416613f1186613ced565b60005b82811015613f3957848901518255600182019150602085019450602081019050613f14565b86831015613f565784890151613f52601f891682613e5f565b8355505b6001600288020188555050505b50505050505056fea264697066735822122013d5e6c68896f2f20acec2257bb41706f1f7280374a7f706640c998c6d62de6d64736f6c63430008100033",
  "immutableReferences": {},
  "source": "// SPDX-License-Identifier: MIT\n\npragma solidity ^0.8;\n\ncontract userRegister {\n    uint public _s_id =0;\n    uint public _b_id =0;\n    uint public _d_id =0;\n    uint public _st_id =0;\n    // structure for school\n    struct school{\n        uint s_id;\n        string s_name;\n        uint s_phone;\n        string s_email;\n        string s_state;\n        string s_district;\n        string s_block;\n        string s_address;\n        address sAddress;\n        string u_type;\n    }\n    mapping(address=>school) public school_data;\n    school[] school_d;\n    //add_school through function\n    function add_school(uint s_id,string memory s_name,uint s_phone,string memory s_email,string memory s_state,string memory s_district,string memory s_block,string memory s_address,address  sAddress,string memory u_type)  \n    public { _s_id=_s_id++;\n        userRegister.school memory x = school(s_id,s_name,s_phone,s_email,s_state,s_district,s_block,s_address,sAddress,u_type);\n        school_d.push(x);\n        school_data[sAddress] = x;\n    }\n    \n    // structure for block\n    struct blocks{\n        string b_officername;\n        uint b_phone;\n        string b_email;\n        string b_state;\n        string b_district;\n        string b_name;\n        address  b_Address;\n        string u_type;\n    }\n    mapping(address =>blocks) public b_data;\n    blocks[] block_d;\n     //add_block officer through function\n    function add_block(string memory b_officername,uint b_phone,string memory b_email,string memory b_state,string memory b_district,string memory b_name,address  b_Address,string memory u_type)  \n    public {\n        userRegister.blocks memory b= blocks(b_officername,b_phone,b_email,b_state,b_district,b_name,b_Address,u_type);\n        block_d.push(b);\n        b_data[b_Address] = b;\n    }\n    \n    // structure for district\n    struct district{\n        uint d_id;\n        string d_officername;\n        uint d_phone;\n        string d_email;\n        string d_state;\n        string d_name;\n        address  d_Address;\n        string u_type;\n    }\n    mapping(address =>district) public d_data;\n    district[] district_d;\n    //add_district officer through function\n    function add_district(uint d_id,string memory d_officername,uint d_phone,string memory d_email,string memory d_state,string memory d_name,address  d_Address,string memory u_type)  \n    public {\n        userRegister.district memory d = district(d_id,d_officername,d_phone,d_email,d_state,d_name,d_Address,u_type);\n        district_d.push(d);\n        d_data[d_Address] = d;\n    }\n    // structure for district\n    struct state{\n        string st_officername;\n        uint st_phone;\n        string st_email;\n        string st_name;\n        address  st_Address;\n        string u_type;\n    }\n    mapping(address =>state) public st_data;\n    state[] state_d;\n    //add_state officer through function\n    function add_state(string memory st_officername,uint st_phone,string memory st_email,string memory st_name,address  st_Address,string memory u_type)  \n    public {\n        userRegister.state memory st = state(st_officername,st_phone,st_email,st_name,st_Address,u_type);\n        state_d.push(st);\n        st_data[st_Address]=st;\n\n    }\n    function checkschool(address acad) view public returns(uint) {\n        uint _find = 0; for (uint _i = 0; _i < school_d.length; _i++) {\n            if (school_d[_i].sAddress== acad) {\n                _find = 1;\n            }} return (_find);\n    }\n    //f\n    function checkblock(address acad) view public returns(uint) {\n        uint _find = 0; for (uint _i = 0; _i < block_d.length; _i++) {\n            if (block_d[_i].b_Address==acad) {\n                _find = 1;\n            }} return (_find);\n    }\n    function checkdistrict(address acad) view public returns(uint) {\n        uint _find = 0; for (uint _i = 0; _i < district_d.length; _i++) {\n            if (district_d[_i].d_Address== acad) {\n                _find = 1;\n            }} return (_find);\n    }\n    function checkstate(address acad) view public returns(uint) {\n        uint _find = 0; for (uint _i = 0; _i < state_d.length; _i++) {\n            if (state_d[_i].st_Address== acad) {\n                _find = 1;\n            }} return (_find);\n    }\n    function showschool(address s_acad) public view returns(uint,string memory,uint,string memory,string memory,string memory,string memory){\n     return (school_data[s_acad].s_id,school_data[s_acad].s_name,school_data[s_acad].s_phone,school_data[s_acad].s_email,school_data[s_acad].s_state,school_data[s_acad].s_district,school_data[s_acad].s_block);\n    }\n    function showblock(address  b_acad) public view returns(string memory ,uint, string memory ,string memory ,string memory ,string memory ,address  ){\n        return(b_data[b_acad].b_officername,b_data[b_acad].b_phone,b_data[b_acad].b_email,b_data[b_acad].b_state,b_data[b_acad].b_district,b_data[b_acad].b_name,b_data[b_acad].b_Address);\n    }\n    function showdistrict(address  d_acad) public view returns(string memory ,uint, string memory ,string memory ,string memory ,address  ){\n        return(d_data[d_acad].d_officername,d_data[d_acad].d_phone,d_data[d_acad].d_email,d_data[d_acad].d_state,d_data[d_acad].d_name,d_data[d_acad].d_Address);\n    }\n    function showstate(address  st_acad) public view returns(string memory ,uint, string memory ,string memory ,address  ){\n        return(st_data[st_acad].st_officername,st_data[st_acad].st_phone,st_data[st_acad].st_email,st_data[st_acad].st_name,st_data[st_acad].st_Address);\n    }\n    }\n",
  "sourcePath": "/home/star/Documents/prolist/AkshayPatraProjectScheme/contracts/userRegister.sol",
  "compiler": {
    "name": "solc",
    "version": "0.8.16+commit.07a7930e.Emscripten.clang"
  },
  "schemaVersion": "3.4.9",
  "updatedAt": "2022-09-12T10:18:21.459Z",
  "networkType": "ethereum",
  "devdoc": {
    "kind": "dev",
    "methods": {},
    "version": 1
  },
  "userdoc": {
    "kind": "user",
    "methods": {},
    "version": 1
  }
}