{
  "contractName": "userRegister",
  "abi": [
    {
      "inputs": [],
      "name": "_b_id",
      "outputs": [
        {
          "internalType": "uint256",
          "name": "",
          "type": "uint256"
        }
      ],
      "stateMutability": "view",
      "type": "function",
      "constant": true
    },
    {
      "inputs": [],
      "name": "_d_id",
      "outputs": [
        {
          "internalType": "uint256",
          "name": "",
          "type": "uint256"
        }
      ],
      "stateMutability": "view",
      "type": "function",
      "constant": true
    },
    {
      "inputs": [],
      "name": "_s_id",
      "outputs": [
        {
          "internalType": "uint256",
          "name": "",
          "type": "uint256"
        }
      ],
      "stateMutability": "view",
      "type": "function",
      "constant": true
    },
    {
      "inputs": [],
      "name": "_st_id",
      "outputs": [
        {
          "internalType": "uint256",
          "name": "",
          "type": "uint256"
        }
      ],
      "stateMutability": "view",
      "type": "function",
      "constant": true
    },
    {
      "inputs": [
        {
          "internalType": "address",
          "name": "",
          "type": "address"
        }
      ],
      "name": "b_data",
      "outputs": [
        {
          "internalType": "string",
          "name": "b_officername",
          "type": "string"
        },
        {
          "internalType": "uint256",
          "name": "b_phone",
          "type": "uint256"
        },
        {
          "internalType": "string",
          "name": "b_email",
          "type": "string"
        },
        {
          "internalType": "string",
          "name": "b_state",
          "type": "string"
        },
        {
          "internalType": "string",
          "name": "b_district",
          "type": "string"
        },
        {
          "internalType": "string",
          "name": "b_name",
          "type": "string"
        },
        {
          "internalType": "address",
          "name": "b_Address",
          "type": "address"
        },
        {
          "internalType": "string",
          "name": "u_type",
          "type": "string"
        }
      ],
      "stateMutability": "view",
      "type": "function",
      "constant": true
    },
    {
      "inputs": [
        {
          "internalType": "uint256",
          "name": "",
          "type": "uint256"
        }
      ],
      "name": "bill_data",
      "outputs": [
        {
          "internalType": "uint256",
          "name": "b_id",
          "type": "uint256"
        },
        {
          "internalType": "uint256",
          "name": "b_tid",
          "type": "uint256"
        },
        {
          "internalType": "string",
          "name": "b_month",
          "type": "string"
        },
        {
          "internalType": "uint256",
          "name": "b_amount",
          "type": "uint256"
        }
      ],
      "stateMutability": "view",
      "type": "function",
      "constant": true
    },
    {
      "inputs": [
        {
          "internalType": "address",
          "name": "",
          "type": "address"
        }
      ],
      "name": "d_data",
      "outputs": [
        {
          "internalType": "string",
          "name": "d_officername",
          "type": "string"
        },
        {
          "internalType": "uint256",
          "name": "d_phone",
          "type": "uint256"
        },
        {
          "internalType": "string",
          "name": "d_email",
          "type": "string"
        },
        {
          "internalType": "string",
          "name": "d_state",
          "type": "string"
        },
        {
          "internalType": "string",
          "name": "d_name",
          "type": "string"
        },
        {
          "internalType": "address",
          "name": "d_Address",
          "type": "address"
        },
        {
          "internalType": "string",
          "name": "u_type",
          "type": "string"
        }
      ],
      "stateMutability": "view",
      "type": "function",
      "constant": true
    },
    {
      "inputs": [
        {
          "internalType": "address",
          "name": "",
          "type": "address"
        }
      ],
      "name": "school_data",
      "outputs": [
        {
          "internalType": "uint256",
          "name": "s_id",
          "type": "uint256"
        },
        {
          "internalType": "string",
          "name": "s_name",
          "type": "string"
        },
        {
          "internalType": "uint256",
          "name": "s_phone",
          "type": "uint256"
        },
        {
          "internalType": "string",
          "name": "s_email",
          "type": "string"
        },
        {
          "internalType": "string",
          "name": "s_state",
          "type": "string"
        },
        {
          "internalType": "string",
          "name": "s_district",
          "type": "string"
        },
        {
          "internalType": "string",
          "name": "s_block",
          "type": "string"
        },
        {
          "internalType": "string",
          "name": "s_address",
          "type": "string"
        },
        {
          "internalType": "address",
          "name": "sAddress",
          "type": "address"
        },
        {
          "internalType": "string",
          "name": "u_type",
          "type": "string"
        }
      ],
      "stateMutability": "view",
      "type": "function",
      "constant": true
    },
    {
      "inputs": [
        {
          "internalType": "address",
          "name": "",
          "type": "address"
        }
      ],
      "name": "st_data",
      "outputs": [
        {
          "internalType": "string",
          "name": "st_officername",
          "type": "string"
        },
        {
          "internalType": "uint256",
          "name": "st_phone",
          "type": "uint256"
        },
        {
          "internalType": "string",
          "name": "st_email",
          "type": "string"
        },
        {
          "internalType": "string",
          "name": "st_name",
          "type": "string"
        },
        {
          "internalType": "address",
          "name": "st_Address",
          "type": "address"
        },
        {
          "internalType": "string",
          "name": "u_type",
          "type": "string"
        }
      ],
      "stateMutability": "view",
      "type": "function",
      "constant": true
    },
    {
      "inputs": [
        {
          "internalType": "uint256",
          "name": "",
          "type": "uint256"
        }
      ],
      "name": "t_data",
      "outputs": [
        {
          "internalType": "uint256",
          "name": "t_id",
          "type": "uint256"
        },
        {
          "internalType": "address",
          "name": "t_sid",
          "type": "address"
        },
        {
          "internalType": "string",
          "name": "t_status",
          "type": "string"
        },
        {
          "internalType": "uint256",
          "name": "t_amount",
          "type": "uint256"
        },
        {
          "internalType": "string",
          "name": "t_timest",
          "type": "string"
        }
      ],
      "stateMutability": "view",
      "type": "function",
      "constant": true
    },
    {
      "inputs": [
        {
          "internalType": "uint256",
          "name": "s_id",
          "type": "uint256"
        },
        {
          "internalType": "string",
          "name": "s_name",
          "type": "string"
        },
        {
          "internalType": "uint256",
          "name": "s_phone",
          "type": "uint256"
        },
        {
          "internalType": "string",
          "name": "s_email",
          "type": "string"
        },
        {
          "internalType": "string",
          "name": "s_state",
          "type": "string"
        },
        {
          "internalType": "string",
          "name": "s_district",
          "type": "string"
        },
        {
          "internalType": "string",
          "name": "s_block",
          "type": "string"
        },
        {
          "internalType": "string",
          "name": "s_address",
          "type": "string"
        },
        {
          "internalType": "address",
          "name": "sAddress",
          "type": "address"
        },
        {
          "internalType": "string",
          "name": "u_type",
          "type": "string"
        }
      ],
      "name": "add_school",
      "outputs": [],
      "stateMutability": "nonpayable",
      "type": "function"
    },
    {
      "inputs": [
        {
          "internalType": "string",
          "name": "b_officername",
          "type": "string"
        },
        {
          "internalType": "uint256",
          "name": "b_phone",
          "type": "uint256"
        },
        {
          "internalType": "string",
          "name": "b_email",
          "type": "string"
        },
        {
          "internalType": "string",
          "name": "b_state",
          "type": "string"
        },
        {
          "internalType": "string",
          "name": "b_district",
          "type": "string"
        },
        {
          "internalType": "string",
          "name": "b_name",
          "type": "string"
        },
        {
          "internalType": "address",
          "name": "b_Address",
          "type": "address"
        },
        {
          "internalType": "string",
          "name": "u_type",
          "type": "string"
        }
      ],
      "name": "add_block",
      "outputs": [],
      "stateMutability": "nonpayable",
      "type": "function"
    },
    {
      "inputs": [
        {
          "internalType": "string",
          "name": "d_officername",
          "type": "string"
        },
        {
          "internalType": "uint256",
          "name": "d_phone",
          "type": "uint256"
        },
        {
          "internalType": "string",
          "name": "d_email",
          "type": "string"
        },
        {
          "internalType": "string",
          "name": "d_state",
          "type": "string"
        },
        {
          "internalType": "string",
          "name": "d_name",
          "type": "string"
        },
        {
          "internalType": "address",
          "name": "d_Address",
          "type": "address"
        },
        {
          "internalType": "string",
          "name": "u_type",
          "type": "string"
        }
      ],
      "name": "add_district",
      "outputs": [],
      "stateMutability": "nonpayable",
      "type": "function"
    },
    {
      "inputs": [
        {
          "internalType": "string",
          "name": "st_officername",
          "type": "string"
        },
        {
          "internalType": "uint256",
          "name": "st_phone",
          "type": "uint256"
        },
        {
          "internalType": "string",
          "name": "st_email",
          "type": "string"
        },
        {
          "internalType": "string",
          "name": "st_name",
          "type": "string"
        },
        {
          "internalType": "address",
          "name": "st_Address",
          "type": "address"
        },
        {
          "internalType": "string",
          "name": "u_type",
          "type": "string"
        }
      ],
      "name": "add_state",
      "outputs": [],
      "stateMutability": "nonpayable",
      "type": "function"
    },
    {
      "inputs": [
        {
          "internalType": "address",
          "name": "acad",
          "type": "address"
        }
      ],
      "name": "checkschool",
      "outputs": [
        {
          "internalType": "uint256",
          "name": "",
          "type": "uint256"
        }
      ],
      "stateMutability": "view",
      "type": "function",
      "constant": true
    },
    {
      "inputs": [
        {
          "internalType": "address",
          "name": "acad",
          "type": "address"
        }
      ],
      "name": "checkblock",
      "outputs": [
        {
          "internalType": "uint256",
          "name": "",
          "type": "uint256"
        }
      ],
      "stateMutability": "view",
      "type": "function",
      "constant": true
    },
    {
      "inputs": [
        {
          "internalType": "address",
          "name": "acad",
          "type": "address"
        }
      ],
      "name": "checkdistrict",
      "outputs": [
        {
          "internalType": "uint256",
          "name": "",
          "type": "uint256"
        }
      ],
      "stateMutability": "view",
      "type": "function",
      "constant": true
    },
    {
      "inputs": [
        {
          "internalType": "address",
          "name": "acad",
          "type": "address"
        }
      ],
      "name": "checkstate",
      "outputs": [
        {
          "internalType": "uint256",
          "name": "",
          "type": "uint256"
        }
      ],
      "stateMutability": "view",
      "type": "function",
      "constant": true
    },
    {
      "inputs": [
        {
          "internalType": "address",
          "name": "s_acad",
          "type": "address"
        }
      ],
      "name": "showschool",
      "outputs": [
        {
          "internalType": "uint256",
          "name": "",
          "type": "uint256"
        },
        {
          "internalType": "string",
          "name": "",
          "type": "string"
        },
        {
          "internalType": "uint256",
          "name": "",
          "type": "uint256"
        },
        {
          "internalType": "string",
          "name": "",
          "type": "string"
        },
        {
          "internalType": "string",
          "name": "",
          "type": "string"
        },
        {
          "internalType": "string",
          "name": "",
          "type": "string"
        },
        {
          "internalType": "string",
          "name": "",
          "type": "string"
        }
      ],
      "stateMutability": "view",
      "type": "function",
      "constant": true
    },
    {
      "inputs": [
        {
          "internalType": "uint256",
          "name": "ssindex",
          "type": "uint256"
        }
      ],
      "name": "showschoolindex",
      "outputs": [
        {
          "internalType": "uint256",
          "name": "",
          "type": "uint256"
        },
        {
          "internalType": "string",
          "name": "",
          "type": "string"
        },
        {
          "internalType": "uint256",
          "name": "",
          "type": "uint256"
        },
        {
          "internalType": "string",
          "name": "",
          "type": "string"
        },
        {
          "internalType": "string",
          "name": "",
          "type": "string"
        },
        {
          "internalType": "string",
          "name": "",
          "type": "string"
        },
        {
          "internalType": "string",
          "name": "",
          "type": "string"
        }
      ],
      "stateMutability": "view",
      "type": "function",
      "constant": true
    },
    {
      "inputs": [
        {
          "internalType": "address",
          "name": "b_acad",
          "type": "address"
        }
      ],
      "name": "showblock",
      "outputs": [
        {
          "internalType": "string",
          "name": "",
          "type": "string"
        },
        {
          "internalType": "uint256",
          "name": "",
          "type": "uint256"
        },
        {
          "internalType": "string",
          "name": "",
          "type": "string"
        },
        {
          "internalType": "string",
          "name": "",
          "type": "string"
        },
        {
          "internalType": "string",
          "name": "",
          "type": "string"
        },
        {
          "internalType": "string",
          "name": "",
          "type": "string"
        },
        {
          "internalType": "address",
          "name": "",
          "type": "address"
        }
      ],
      "stateMutability": "view",
      "type": "function",
      "constant": true
    },
    {
      "inputs": [
        {
          "internalType": "address",
          "name": "d_acad",
          "type": "address"
        }
      ],
      "name": "showdistrict",
      "outputs": [
        {
          "internalType": "string",
          "name": "",
          "type": "string"
        },
        {
          "internalType": "uint256",
          "name": "",
          "type": "uint256"
        },
        {
          "internalType": "string",
          "name": "",
          "type": "string"
        },
        {
          "internalType": "string",
          "name": "",
          "type": "string"
        },
        {
          "internalType": "string",
          "name": "",
          "type": "string"
        },
        {
          "internalType": "address",
          "name": "",
          "type": "address"
        }
      ],
      "stateMutability": "view",
      "type": "function",
      "constant": true
    },
    {
      "inputs": [
        {
          "internalType": "address",
          "name": "st_acad",
          "type": "address"
        }
      ],
      "name": "showstate",
      "outputs": [
        {
          "internalType": "string",
          "name": "",
          "type": "string"
        },
        {
          "internalType": "uint256",
          "name": "",
          "type": "uint256"
        },
        {
          "internalType": "string",
          "name": "",
          "type": "string"
        },
        {
          "internalType": "string",
          "name": "",
          "type": "string"
        },
        {
          "internalType": "address",
          "name": "",
          "type": "address"
        }
      ],
      "stateMutability": "view",
      "type": "function",
      "constant": true
    },
    {
      "inputs": [
        {
          "internalType": "uint256",
          "name": "t_id",
          "type": "uint256"
        },
        {
          "internalType": "address",
          "name": "t_sid",
          "type": "address"
        },
        {
          "internalType": "string",
          "name": "t_status",
          "type": "string"
        },
        {
          "internalType": "uint256",
          "name": "t_amount",
          "type": "uint256"
        },
        {
          "internalType": "string",
          "name": "t_timest",
          "type": "string"
        }
      ],
      "name": "add_tender",
      "outputs": [],
      "stateMutability": "nonpayable",
      "type": "function"
    },
    {
      "inputs": [
        {
          "internalType": "uint256",
          "name": "t_id",
          "type": "uint256"
        }
      ],
      "name": "checktender",
      "outputs": [
        {
          "internalType": "uint256",
          "name": "",
          "type": "uint256"
        }
      ],
      "stateMutability": "view",
      "type": "function",
      "constant": true
    },
    {
      "inputs": [
        {
          "internalType": "uint256",
          "name": "t_id",
          "type": "uint256"
        }
      ],
      "name": "showtender",
      "outputs": [
        {
          "internalType": "uint256",
          "name": "",
          "type": "uint256"
        },
        {
          "internalType": "address",
          "name": "",
          "type": "address"
        },
        {
          "internalType": "string",
          "name": "",
          "type": "string"
        },
        {
          "internalType": "uint256",
          "name": "",
          "type": "uint256"
        },
        {
          "internalType": "string",
          "name": "",
          "type": "string"
        }
      ],
      "stateMutability": "view",
      "type": "function",
      "constant": true
    },
    {
      "inputs": [
        {
          "internalType": "uint256",
          "name": "b_id",
          "type": "uint256"
        },
        {
          "internalType": "uint256",
          "name": "b_tid",
          "type": "uint256"
        },
        {
          "internalType": "string",
          "name": "b_month",
          "type": "string"
        },
        {
          "internalType": "uint256",
          "name": "b_amount",
          "type": "uint256"
        }
      ],
      "name": "add_bill",
      "outputs": [],
      "stateMutability": "nonpayable",
      "type": "function"
    },
    {
      "inputs": [],
      "name": "getTenderSize",
      "outputs": [
        {
          "internalType": "uint256",
          "name": "",
          "type": "uint256"
        }
      ],
      "stateMutability": "view",
      "type": "function",
      "constant": true
    },
    {
      "inputs": [
        {
          "internalType": "uint256",
          "name": "_i",
          "type": "uint256"
        }
      ],
      "name": "getTengder",
      "outputs": [
        {
          "internalType": "uint256",
          "name": "",
          "type": "uint256"
        },
        {
          "internalType": "address",
          "name": "",
          "type": "address"
        },
        {
          "internalType": "string",
          "name": "",
          "type": "string"
        },
        {
          "internalType": "uint256",
          "name": "",
          "type": "uint256"
        }
      ],
      "stateMutability": "view",
      "type": "function",
      "constant": true
    }
  ],
  "bytecode": "0x60806040526000805560006001556000600255600060035534801561002357600080fd5b50614ff2806100336000396000f3fe608060405234801561001057600080fd5b50600436106101ce5760003560e01c8063753d8a2c11610104578063a7fc1769116100a2578063ec68d06911610071578063ec68d06914610610578063ed1af07914610647578063ee3c9b5b1461067b578063ef3d7a1514610699576101ce565b8063a7fc176914610572578063a9cdbce5146105a6578063e1eae6a3146105d6578063e7f88121146105f2576101ce565b806398dec30d116100de57806398dec30d146104cf5780639e49aff614610504578063a6ed2c2f14610522578063a7b462ad1461053e576101ce565b8063753d8a2c1461047757806377992d09146104955780637f7ccf1e146104b1576101ce565b80634f6e3a83116101715780636c1f828a1161014b5780636c1f828a146103a95780636f749b54146103de57806372fc8c8814610411578063746b7a9414610441576101ce565b80634f6e3a83146103275780635a895779146103435780636103ceac14610373576101ce565b8063299817e1116101ad578063299817e114610275578063344484c6146102a55780633a1a4d72146102db57806341ea5c6d146102f7576101ce565b8062217830146101d357806312630cd61461020c5780631d8e365d1461023f575b600080fd5b6101ed60048036038101906101e89190613dc2565b6106b5565b6040516102039a99989796959493929190613ea7565b60405180910390f35b61022660048036038101906102219190613fa0565b610ae1565b6040516102369493929190613fcd565b60405180910390f35b61025960048036038101906102549190613dc2565b610c3a565b60405161026c9796959493929190614019565b60405180910390f35b61028f600480360381019061028a9190613dc2565b6110eb565b60405161029c91906140ab565b60405180910390f35b6102bf60048036038101906102ba9190613fa0565b61119c565b6040516102d29796959493929190614019565b60405180910390f35b6102f560048036038101906102f091906141fb565b611582565b005b610311600480360381019061030c9190613dc2565b611795565b60405161031e91906140ab565b60405180910390f35b610341600480360381019061033c91906142f8565b611846565b005b61035d60048036038101906103589190613dc2565b611b2e565b60405161036a91906140ab565b60405180910390f35b61038d60048036038101906103889190613dc2565b611bdf565b6040516103a0979695949392919061449b565b60405180910390f35b6103c360048036038101906103be9190613dc2565b611ee9565b6040516103d59695949392919061452d565b60405180910390f35b6103f860048036038101906103f39190613fa0565b612165565b60405161040894939291906145aa565b60405180910390f35b61042b60048036038101906104269190613dc2565b61221d565b60405161043891906140ab565b60405180910390f35b61045b60048036038101906104569190613dc2565b6122ce565b60405161046e97969594939291906145f6565b60405180910390f35b61047f61279f565b60405161048c91906140ab565b60405180910390f35b6104af60048036038101906104aa9190614688565b6127b1565b005b6104b9612a2b565b6040516104c691906140ab565b60405180910390f35b6104e960048036038101906104e49190613dc2565b612a31565b6040516104fb969594939291906147e6565b60405180910390f35b61050c612e2f565b60405161051991906140ab565b60405180910390f35b61053c60048036038101906105379190614863565b612e35565b005b61055860048036038101906105539190613fa0565b61307b565b604051610569959493929190614991565b60405180910390f35b61058c60048036038101906105879190613fa0565b613240565b60405161059d959493929190614991565b60405180910390f35b6105c060048036038101906105bb9190613fa0565b6133a6565b6040516105cd91906140ab565b60405180910390f35b6105f060048036038101906105eb91906149f2565b61340b565b005b6105fa6134e4565b60405161060791906140ab565b60405180910390f35b61062a60048036038101906106259190613dc2565b6134ea565b60405161063e989796959493929190614a75565b60405180910390f35b610661600480360381019061065c9190613dc2565b613882565b604051610672959493929190614b1d565b60405180910390f35b610683613bae565b60405161069091906140ab565b60405180910390f35b6106b360048036038101906106ae9190614b85565b613bb4565b005b60046020528060005260406000206000915090508060000154908060010180546106de90614c67565b80601f016020809104026020016040519081016040528092919081815260200182805461070a90614c67565b80156107575780601f1061072c57610100808354040283529160200191610757565b820191906000526020600020905b81548152906001019060200180831161073a57829003601f168201915b50505050509080600201549080600301805461077290614c67565b80601f016020809104026020016040519081016040528092919081815260200182805461079e90614c67565b80156107eb5780601f106107c0576101008083540402835291602001916107eb565b820191906000526020600020905b8154815290600101906020018083116107ce57829003601f168201915b50505050509080600401805461080090614c67565b80601f016020809104026020016040519081016040528092919081815260200182805461082c90614c67565b80156108795780601f1061084e57610100808354040283529160200191610879565b820191906000526020600020905b81548152906001019060200180831161085c57829003601f168201915b50505050509080600501805461088e90614c67565b80601f01602080910402602001604051908101604052809291908181526020018280546108ba90614c67565b80156109075780601f106108dc57610100808354040283529160200191610907565b820191906000526020600020905b8154815290600101906020018083116108ea57829003601f168201915b50505050509080600601805461091c90614c67565b80601f016020809104026020016040519081016040528092919081815260200182805461094890614c67565b80156109955780601f1061096a57610100808354040283529160200191610995565b820191906000526020600020905b81548152906001019060200180831161097857829003601f168201915b5050505050908060070180546109aa90614c67565b80601f01602080910402602001604051908101604052809291908181526020018280546109d690614c67565b8015610a235780601f106109f857610100808354040283529160200191610a23565b820191906000526020600020905b815481529060010190602001808311610a0657829003601f168201915b5050505050908060080160009054906101000a900473ffffffffffffffffffffffffffffffffffffffff1690806009018054610a5e90614c67565b80601f0160208091040260200160405190810160405280929190818152602001828054610a8a90614c67565b8015610ad75780601f10610aac57610100808354040283529160200191610ad7565b820191906000526020600020905b815481529060010190602001808311610aba57829003601f168201915b505050505090508a565b60008060606000600d8581548110610afc57610afb614c98565b5b906000526020600020906005020160000154600d8681548110610b2257610b21614c98565b5b906000526020600020906005020160010160009054906101000a900473ffffffffffffffffffffffffffffffffffffffff16600d8781548110610b6857610b67614c98565b5b9060005260206000209060050201600201600d8881548110610b8d57610b8c614c98565b5b906000526020600020906005020160030154818054610bab90614c67565b80601f0160208091040260200160405190810160405280929190818152602001828054610bd790614c67565b8015610c245780601f10610bf957610100808354040283529160200191610c24565b820191906000526020600020905b815481529060010190602001808311610c0757829003601f168201915b5050505050915093509350935093509193509193565b600060606000606080606080600460008973ffffffffffffffffffffffffffffffffffffffff1673ffffffffffffffffffffffffffffffffffffffff16815260200190815260200160002060000154600460008a73ffffffffffffffffffffffffffffffffffffffff1673ffffffffffffffffffffffffffffffffffffffff168152602001908152602001600020600101600460008b73ffffffffffffffffffffffffffffffffffffffff1673ffffffffffffffffffffffffffffffffffffffff16815260200190815260200160002060020154600460008c73ffffffffffffffffffffffffffffffffffffffff1673ffffffffffffffffffffffffffffffffffffffff168152602001908152602001600020600301600460008d73ffffffffffffffffffffffffffffffffffffffff1673ffffffffffffffffffffffffffffffffffffffff168152602001908152602001600020600401600460008e73ffffffffffffffffffffffffffffffffffffffff1673ffffffffffffffffffffffffffffffffffffffff168152602001908152602001600020600501600460008f73ffffffffffffffffffffffffffffffffffffffff1673ffffffffffffffffffffffffffffffffffffffff168152602001908152602001600020600601858054610e2290614c67565b80601f0160208091040260200160405190810160405280929190818152602001828054610e4e90614c67565b8015610e9b5780601f10610e7057610100808354040283529160200191610e9b565b820191906000526020600020905b815481529060010190602001808311610e7e57829003601f168201915b50505050509550838054610eae90614c67565b80601f0160208091040260200160405190810160405280929190818152602001828054610eda90614c67565b8015610f275780601f10610efc57610100808354040283529160200191610f27565b820191906000526020600020905b815481529060010190602001808311610f0a57829003601f168201915b50505050509350828054610f3a90614c67565b80601f0160208091040260200160405190810160405280929190818152602001828054610f6690614c67565b8015610fb35780601f10610f8857610100808354040283529160200191610fb3565b820191906000526020600020905b815481529060010190602001808311610f9657829003601f168201915b50505050509250818054610fc690614c67565b80601f0160208091040260200160405190810160405280929190818152602001828054610ff290614c67565b801561103f5780601f106110145761010080835404028352916020019161103f565b820191906000526020600020905b81548152906001019060200180831161102257829003601f168201915b5050505050915080805461105290614c67565b80601f016020809104026020016040519081016040528092919081815260200182805461107e90614c67565b80156110cb5780601f106110a0576101008083540402835291602001916110cb565b820191906000526020600020905b8154815290600101906020018083116110ae57829003601f168201915b505050505090509650965096509650965096509650919395979092949650565b6000806000905060005b600780549050811015611192578373ffffffffffffffffffffffffffffffffffffffff166007828154811061112d5761112c614c98565b5b906000526020600020906008020160060160009054906101000a900473ffffffffffffffffffffffffffffffffffffffff1673ffffffffffffffffffffffffffffffffffffffff160361117f57600191505b808061118a90614cf6565b9150506110f5565b5080915050919050565b600060606000606080606080600588815481106111bc576111bb614c98565b5b90600052602060002090600a020160000154600589815481106111e2576111e1614c98565b5b90600052602060002090600a020160010160058a8154811061120757611206614c98565b5b90600052602060002090600a02016002015460058b8154811061122d5761122c614c98565b5b90600052602060002090600a020160030160058c8154811061125257611251614c98565b5b90600052602060002090600a020160040160058d8154811061127757611276614c98565b5b90600052602060002090600a020160050160058e8154811061129c5761129b614c98565b5b90600052602060002090600a02016006018580546112b990614c67565b80601f01602080910402602001604051908101604052809291908181526020018280546112e590614c67565b80156113325780601f1061130757610100808354040283529160200191611332565b820191906000526020600020905b81548152906001019060200180831161131557829003601f168201915b5050505050955083805461134590614c67565b80601f016020809104026020016040519081016040528092919081815260200182805461137190614c67565b80156113be5780601f10611393576101008083540402835291602001916113be565b820191906000526020600020905b8154815290600101906020018083116113a157829003601f168201915b505050505093508280546113d190614c67565b80601f01602080910402602001604051908101604052809291908181526020018280546113fd90614c67565b801561144a5780601f1061141f5761010080835404028352916020019161144a565b820191906000526020600020905b81548152906001019060200180831161142d57829003601f168201915b5050505050925081805461145d90614c67565b80601f016020809104026020016040519081016040528092919081815260200182805461148990614c67565b80156114d65780601f106114ab576101008083540402835291602001916114d6565b820191906000526020600020905b8154815290600101906020018083116114b957829003601f168201915b505050505091508080546114e990614c67565b80601f016020809104026020016040519081016040528092919081815260200182805461151590614c67565b80156115625780601f1061153757610100808354040283529160200191611562565b820191906000526020600020905b81548152906001019060200180831161154557829003601f168201915b505050505090509650965096509650965096509650919395979092949650565b60006040518060c001604052808881526020018781526020018681526020018581526020018473ffffffffffffffffffffffffffffffffffffffff168152602001838152509050600b819080600181540180825580915050600190039060005260206000209060060201600090919091909150600082015181600001908161160a9190614eea565b5060208201518160010155604082015181600201908161162a9190614eea565b5060608201518160030190816116409190614eea565b5060808201518160040160006101000a81548173ffffffffffffffffffffffffffffffffffffffff021916908373ffffffffffffffffffffffffffffffffffffffff16021790555060a082015181600501908161169d9190614eea565b50505080600a60008573ffffffffffffffffffffffffffffffffffffffff1673ffffffffffffffffffffffffffffffffffffffff16815260200190815260200160002060008201518160000190816116f59190614eea565b506020820151816001015560408201518160020190816117159190614eea565b50606082015181600301908161172b9190614eea565b5060808201518160040160006101000a81548173ffffffffffffffffffffffffffffffffffffffff021916908373ffffffffffffffffffffffffffffffffffffffff16021790555060a08201518160050190816117889190614eea565b5090505050505050505050565b6000806000905060005b600b8054905081101561183c578373ffffffffffffffffffffffffffffffffffffffff16600b82815481106117d7576117d6614c98565b5b906000526020600020906006020160040160009054906101000a900473ffffffffffffffffffffffffffffffffffffffff1673ffffffffffffffffffffffffffffffffffffffff160361182957600191505b808061183490614cf6565b91505061179f565b5080915050919050565b60008081548092919061185890614cf6565b9190505560008190555060006040518061014001604052808c81526020018b81526020018a81526020018981526020018881526020018781526020018681526020018581526020018473ffffffffffffffffffffffffffffffffffffffff16815260200183815250905060058190806001815401808255809150506001900390600052602060002090600a020160009091909190915060008201518160000155602082015181600101908161190d9190614eea565b5060408201518160020155606082015181600301908161192d9190614eea565b5060808201518160040190816119439190614eea565b5060a08201518160050190816119599190614eea565b5060c082015181600601908161196f9190614eea565b5060e08201518160070190816119859190614eea565b506101008201518160080160006101000a81548173ffffffffffffffffffffffffffffffffffffffff021916908373ffffffffffffffffffffffffffffffffffffffff1602179055506101208201518160090190816119e49190614eea565b50505080600460008573ffffffffffffffffffffffffffffffffffffffff1673ffffffffffffffffffffffffffffffffffffffff168152602001908152602001600020600082015181600001556020820151816001019081611a469190614eea565b50604082015181600201556060820151816003019081611a669190614eea565b506080820151816004019081611a7c9190614eea565b5060a0820151816005019081611a929190614eea565b5060c0820151816006019081611aa89190614eea565b5060e0820151816007019081611abe9190614eea565b506101008201518160080160006101000a81548173ffffffffffffffffffffffffffffffffffffffff021916908373ffffffffffffffffffffffffffffffffffffffff160217905550610120820151816009019081611b1d9190614eea565b509050505050505050505050505050565b6000806000905060005b600980549050811015611bd5578373ffffffffffffffffffffffffffffffffffffffff1660098281548110611b7057611b6f614c98565b5b906000526020600020906007020160050160009054906101000a900473ffffffffffffffffffffffffffffffffffffffff1673ffffffffffffffffffffffffffffffffffffffff1603611bc257600191505b8080611bcd90614cf6565b915050611b38565b5080915050919050565b6008602052806000526040600020600091509050806000018054611c0290614c67565b80601f0160208091040260200160405190810160405280929190818152602001828054611c2e90614c67565b8015611c7b5780601f10611c5057610100808354040283529160200191611c7b565b820191906000526020600020905b815481529060010190602001808311611c5e57829003601f168201915b505050505090806001015490806002018054611c9690614c67565b80601f0160208091040260200160405190810160405280929190818152602001828054611cc290614c67565b8015611d0f5780601f10611ce457610100808354040283529160200191611d0f565b820191906000526020600020905b815481529060010190602001808311611cf257829003601f168201915b505050505090806003018054611d2490614c67565b80601f0160208091040260200160405190810160405280929190818152602001828054611d5090614c67565b8015611d9d5780601f10611d7257610100808354040283529160200191611d9d565b820191906000526020600020905b815481529060010190602001808311611d8057829003601f168201915b505050505090806004018054611db290614c67565b80601f0160208091040260200160405190810160405280929190818152602001828054611dde90614c67565b8015611e2b5780601f10611e0057610100808354040283529160200191611e2b565b820191906000526020600020905b815481529060010190602001808311611e0e57829003601f168201915b5050505050908060050160009054906101000a900473ffffffffffffffffffffffffffffffffffffffff1690806006018054611e6690614c67565b80601f0160208091040260200160405190810160405280929190818152602001828054611e9290614c67565b8015611edf5780601f10611eb457610100808354040283529160200191611edf565b820191906000526020600020905b815481529060010190602001808311611ec257829003601f168201915b5050505050905087565b600a602052806000526040600020600091509050806000018054611f0c90614c67565b80601f0160208091040260200160405190810160405280929190818152602001828054611f3890614c67565b8015611f855780601f10611f5a57610100808354040283529160200191611f85565b820191906000526020600020905b815481529060010190602001808311611f6857829003601f168201915b505050505090806001015490806002018054611fa090614c67565b80601f0160208091040260200160405190810160405280929190818152602001828054611fcc90614c67565b80156120195780601f10611fee57610100808354040283529160200191612019565b820191906000526020600020905b815481529060010190602001808311611ffc57829003601f168201915b50505050509080600301805461202e90614c67565b80601f016020809104026020016040519081016040528092919081815260200182805461205a90614c67565b80156120a75780601f1061207c576101008083540402835291602001916120a7565b820191906000526020600020905b81548152906001019060200180831161208a57829003601f168201915b5050505050908060040160009054906101000a900473ffffffffffffffffffffffffffffffffffffffff16908060050180546120e290614c67565b80601f016020809104026020016040519081016040528092919081815260200182805461210e90614c67565b801561215b5780601f106121305761010080835404028352916020019161215b565b820191906000526020600020905b81548152906001019060200180831161213e57829003601f168201915b5050505050905086565b600e60205280600052604060002060009150905080600001549080600101549080600201805461219490614c67565b80601f01602080910402602001604051908101604052809291908181526020018280546121c090614c67565b801561220d5780601f106121e25761010080835404028352916020019161220d565b820191906000526020600020905b8154815290600101906020018083116121f057829003601f168201915b5050505050908060030154905084565b6000806000905060005b6005805490508110156122c4578373ffffffffffffffffffffffffffffffffffffffff166005828154811061225f5761225e614c98565b5b90600052602060002090600a020160080160009054906101000a900473ffffffffffffffffffffffffffffffffffffffff1673ffffffffffffffffffffffffffffffffffffffff16036122b157600191505b80806122bc90614cf6565b915050612227565b5080915050919050565b606060006060806060806000600660008973ffffffffffffffffffffffffffffffffffffffff1673ffffffffffffffffffffffffffffffffffffffff168152602001908152602001600020600001600660008a73ffffffffffffffffffffffffffffffffffffffff1673ffffffffffffffffffffffffffffffffffffffff16815260200190815260200160002060010154600660008b73ffffffffffffffffffffffffffffffffffffffff1673ffffffffffffffffffffffffffffffffffffffff168152602001908152602001600020600201600660008c73ffffffffffffffffffffffffffffffffffffffff1673ffffffffffffffffffffffffffffffffffffffff168152602001908152602001600020600301600660008d73ffffffffffffffffffffffffffffffffffffffff1673ffffffffffffffffffffffffffffffffffffffff168152602001908152602001600020600401600660008e73ffffffffffffffffffffffffffffffffffffffff1673ffffffffffffffffffffffffffffffffffffffff168152602001908152602001600020600501600660008f73ffffffffffffffffffffffffffffffffffffffff1673ffffffffffffffffffffffffffffffffffffffff16815260200190815260200160002060060160009054906101000a900473ffffffffffffffffffffffffffffffffffffffff168680546124d690614c67565b80601f016020809104026020016040519081016040528092919081815260200182805461250290614c67565b801561254f5780601f106125245761010080835404028352916020019161254f565b820191906000526020600020905b81548152906001019060200180831161253257829003601f168201915b5050505050965084805461256290614c67565b80601f016020809104026020016040519081016040528092919081815260200182805461258e90614c67565b80156125db5780601f106125b0576101008083540402835291602001916125db565b820191906000526020600020905b8154815290600101906020018083116125be57829003601f168201915b505050505094508380546125ee90614c67565b80601f016020809104026020016040519081016040528092919081815260200182805461261a90614c67565b80156126675780601f1061263c57610100808354040283529160200191612667565b820191906000526020600020905b81548152906001019060200180831161264a57829003601f168201915b5050505050935082805461267a90614c67565b80601f01602080910402602001604051908101604052809291908181526020018280546126a690614c67565b80156126f35780601f106126c8576101008083540402835291602001916126f3565b820191906000526020600020905b8154815290600101906020018083116126d657829003601f168201915b5050505050925081805461270690614c67565b80601f016020809104026020016040519081016040528092919081815260200182805461273290614c67565b801561277f5780601f106127545761010080835404028352916020019161277f565b820191906000526020600020905b81548152906001019060200180831161276257829003601f168201915b505050505091509650965096509650965096509650919395979092949650565b600080600d8054905090508091505090565b60006040518061010001604052808a81526020018981526020018881526020018781526020018681526020018581526020018473ffffffffffffffffffffffffffffffffffffffff168152602001838152509050600781908060018154018082558091505060019003906000526020600020906008020160009091909190915060008201518160000190816128469190614eea565b506020820151816001015560408201518160020190816128669190614eea565b50606082015181600301908161287c9190614eea565b5060808201518160040190816128929190614eea565b5060a08201518160050190816128a89190614eea565b5060c08201518160060160006101000a81548173ffffffffffffffffffffffffffffffffffffffff021916908373ffffffffffffffffffffffffffffffffffffffff16021790555060e08201518160070190816129059190614eea565b50505080600660008573ffffffffffffffffffffffffffffffffffffffff1673ffffffffffffffffffffffffffffffffffffffff168152602001908152602001600020600082015181600001908161295d9190614eea565b5060208201518160010155604082015181600201908161297d9190614eea565b5060608201518160030190816129939190614eea565b5060808201518160040190816129a99190614eea565b5060a08201518160050190816129bf9190614eea565b5060c08201518160060160006101000a81548173ffffffffffffffffffffffffffffffffffffffff021916908373ffffffffffffffffffffffffffffffffffffffff16021790555060e0820151816007019081612a1c9190614eea565b50905050505050505050505050565b60035481565b6060600060608060606000600860008873ffffffffffffffffffffffffffffffffffffffff1673ffffffffffffffffffffffffffffffffffffffff168152602001908152602001600020600001600860008973ffffffffffffffffffffffffffffffffffffffff1673ffffffffffffffffffffffffffffffffffffffff16815260200190815260200160002060010154600860008a73ffffffffffffffffffffffffffffffffffffffff1673ffffffffffffffffffffffffffffffffffffffff168152602001908152602001600020600201600860008b73ffffffffffffffffffffffffffffffffffffffff1673ffffffffffffffffffffffffffffffffffffffff168152602001908152602001600020600301600860008c73ffffffffffffffffffffffffffffffffffffffff1673ffffffffffffffffffffffffffffffffffffffff168152602001908152602001600020600401600860008d73ffffffffffffffffffffffffffffffffffffffff1673ffffffffffffffffffffffffffffffffffffffff16815260200190815260200160002060050160009054906101000a900473ffffffffffffffffffffffffffffffffffffffff16858054612bf690614c67565b80601f0160208091040260200160405190810160405280929190818152602001828054612c2290614c67565b8015612c6f5780601f10612c4457610100808354040283529160200191612c6f565b820191906000526020600020905b815481529060010190602001808311612c5257829003601f168201915b50505050509550838054612c8290614c67565b80601f0160208091040260200160405190810160405280929190818152602001828054612cae90614c67565b8015612cfb5780601f10612cd057610100808354040283529160200191612cfb565b820191906000526020600020905b815481529060010190602001808311612cde57829003601f168201915b50505050509350828054612d0e90614c67565b80601f0160208091040260200160405190810160405280929190818152602001828054612d3a90614c67565b8015612d875780601f10612d5c57610100808354040283529160200191612d87565b820191906000526020600020905b815481529060010190602001808311612d6a57829003601f168201915b50505050509250818054612d9a90614c67565b80601f0160208091040260200160405190810160405280929190818152602001828054612dc690614c67565b8015612e135780601f10612de857610100808354040283529160200191612e13565b820191906000526020600020905b815481529060010190602001808311612df657829003601f168201915b5050505050915095509550955095509550955091939550919395565b60015481565b60006040518060e001604052808981526020018881526020018781526020018681526020018581526020018473ffffffffffffffffffffffffffffffffffffffff16815260200183815250905060098190806001815401808255809150506001900390600052602060002090600702016000909190919091506000820151816000019081612ec39190614eea565b50602082015181600101556040820151816002019081612ee39190614eea565b506060820151816003019081612ef99190614eea565b506080820151816004019081612f0f9190614eea565b5060a08201518160050160006101000a81548173ffffffffffffffffffffffffffffffffffffffff021916908373ffffffffffffffffffffffffffffffffffffffff16021790555060c0820151816006019081612f6c9190614eea565b50505080600860008573ffffffffffffffffffffffffffffffffffffffff1673ffffffffffffffffffffffffffffffffffffffff1681526020019081526020016000206000820151816000019081612fc49190614eea565b50602082015181600101556040820151816002019081612fe49190614eea565b506060820151816003019081612ffa9190614eea565b5060808201518160040190816130109190614eea565b5060a08201518160050160006101000a81548173ffffffffffffffffffffffffffffffffffffffff021916908373ffffffffffffffffffffffffffffffffffffffff16021790555060c082015181600601908161306d9190614eea565b509050505050505050505050565b600080606060006060600c600087815260200190815260200160002060000154600c600088815260200190815260200160002060010160009054906101000a900473ffffffffffffffffffffffffffffffffffffffff16600c6000898152602001908152602001600020600201600c60008a815260200190815260200160002060030154600c60008b815260200190815260200160002060040182805461312190614c67565b80601f016020809104026020016040519081016040528092919081815260200182805461314d90614c67565b801561319a5780601f1061316f5761010080835404028352916020019161319a565b820191906000526020600020905b81548152906001019060200180831161317d57829003601f168201915b505050505092508080546131ad90614c67565b80601f01602080910402602001604051908101604052809291908181526020018280546131d990614c67565b80156132265780601f106131fb57610100808354040283529160200191613226565b820191906000526020600020905b81548152906001019060200180831161320957829003601f168201915b505050505090509450945094509450945091939590929450565b600c6020528060005260406000206000915090508060000154908060010160009054906101000a900473ffffffffffffffffffffffffffffffffffffffff169080600201805461328f90614c67565b80601f01602080910402602001604051908101604052809291908181526020018280546132bb90614c67565b80156133085780601f106132dd57610100808354040283529160200191613308565b820191906000526020600020905b8154815290600101906020018083116132eb57829003601f168201915b50505050509080600301549080600401805461332390614c67565b80601f016020809104026020016040519081016040528092919081815260200182805461334f90614c67565b801561339c5780601f106133715761010080835404028352916020019161339c565b820191906000526020600020905b81548152906001019060200180831161337f57829003601f168201915b5050505050905085565b6000806000905060005b600d805490508110156134015783600d82815481106133d2576133d1614c98565b5b906000526020600020906005020160000154036133ee57600191505b80806133f990614cf6565b9150506133b0565b5080915050919050565b60006040518060800160405280868152602001858152602001848152602001838152509050600f819080600181540180825580915050600190039060005260206000209060040201600090919091909150600082015181600001556020820151816001015560408201518160020190816134859190614eea565b5060608201518160030155505080600e6000878152602001908152602001600020600082015181600001556020820151816001015560408201518160020190816134cf9190614eea565b50606082015181600301559050505050505050565b60025481565b600660205280600052604060002060009150905080600001805461350d90614c67565b80601f016020809104026020016040519081016040528092919081815260200182805461353990614c67565b80156135865780601f1061355b57610100808354040283529160200191613586565b820191906000526020600020905b81548152906001019060200180831161356957829003601f168201915b5050505050908060010154908060020180546135a190614c67565b80601f01602080910402602001604051908101604052809291908181526020018280546135cd90614c67565b801561361a5780601f106135ef5761010080835404028352916020019161361a565b820191906000526020600020905b8154815290600101906020018083116135fd57829003601f168201915b50505050509080600301805461362f90614c67565b80601f016020809104026020016040519081016040528092919081815260200182805461365b90614c67565b80156136a85780601f1061367d576101008083540402835291602001916136a8565b820191906000526020600020905b81548152906001019060200180831161368b57829003601f168201915b5050505050908060040180546136bd90614c67565b80601f01602080910402602001604051908101604052809291908181526020018280546136e990614c67565b80156137365780601f1061370b57610100808354040283529160200191613736565b820191906000526020600020905b81548152906001019060200180831161371957829003601f168201915b50505050509080600501805461374b90614c67565b80601f016020809104026020016040519081016040528092919081815260200182805461377790614c67565b80156137c45780601f10613799576101008083540402835291602001916137c4565b820191906000526020600020905b8154815290600101906020018083116137a757829003601f168201915b5050505050908060060160009054906101000a900473ffffffffffffffffffffffffffffffffffffffff16908060070180546137ff90614c67565b80601f016020809104026020016040519081016040528092919081815260200182805461382b90614c67565b80156138785780601f1061384d57610100808354040283529160200191613878565b820191906000526020600020905b81548152906001019060200180831161385b57829003601f168201915b5050505050905088565b606060006060806000600a60008773ffffffffffffffffffffffffffffffffffffffff1673ffffffffffffffffffffffffffffffffffffffff168152602001908152602001600020600001600a60008873ffffffffffffffffffffffffffffffffffffffff1673ffffffffffffffffffffffffffffffffffffffff16815260200190815260200160002060010154600a60008973ffffffffffffffffffffffffffffffffffffffff1673ffffffffffffffffffffffffffffffffffffffff168152602001908152602001600020600201600a60008a73ffffffffffffffffffffffffffffffffffffffff1673ffffffffffffffffffffffffffffffffffffffff168152602001908152602001600020600301600a60008b73ffffffffffffffffffffffffffffffffffffffff1673ffffffffffffffffffffffffffffffffffffffff16815260200190815260200160002060040160009054906101000a900473ffffffffffffffffffffffffffffffffffffffff16848054613a0390614c67565b80601f0160208091040260200160405190810160405280929190818152602001828054613a2f90614c67565b8015613a7c5780601f10613a5157610100808354040283529160200191613a7c565b820191906000526020600020905b815481529060010190602001808311613a5f57829003601f168201915b50505050509450828054613a8f90614c67565b80601f0160208091040260200160405190810160405280929190818152602001828054613abb90614c67565b8015613b085780601f10613add57610100808354040283529160200191613b08565b820191906000526020600020905b815481529060010190602001808311613aeb57829003601f168201915b50505050509250818054613b1b90614c67565b80601f0160208091040260200160405190810160405280929190818152602001828054613b4790614c67565b8015613b945780601f10613b6957610100808354040283529160200191613b94565b820191906000526020600020905b815481529060010190602001808311613b7757829003601f168201915b505050505091509450945094509450945091939590929450565b60005481565b60006040518060a001604052808781526020018673ffffffffffffffffffffffffffffffffffffffff168152602001858152602001848152602001838152509050600d8190806001815401808255809150506001900390600052602060002090600502016000909190919091506000820151816000015560208201518160010160006101000a81548173ffffffffffffffffffffffffffffffffffffffff021916908373ffffffffffffffffffffffffffffffffffffffff1602179055506040820151816002019081613c879190614eea565b50606082015181600301556080820151816004019081613ca79190614eea565b50505080600c60008881526020019081526020016000206000820151816000015560208201518160010160006101000a81548173ffffffffffffffffffffffffffffffffffffffff021916908373ffffffffffffffffffffffffffffffffffffffff1602179055506040820151816002019081613d249190614eea565b50606082015181600301556080820151816004019081613d449190614eea565b50905050505050505050565b6000604051905090565b600080fd5b600080fd5b600073ffffffffffffffffffffffffffffffffffffffff82169050919050565b6000613d8f82613d64565b9050919050565b613d9f81613d84565b8114613daa57600080fd5b50565b600081359050613dbc81613d96565b92915050565b600060208284031215613dd857613dd7613d5a565b5b6000613de684828501613dad565b91505092915050565b6000819050919050565b613e0281613def565b82525050565b600081519050919050565b600082825260208201905092915050565b60005b83811015613e42578082015181840152602081019050613e27565b60008484015250505050565b6000601f19601f8301169050919050565b6000613e6a82613e08565b613e748185613e13565b9350613e84818560208601613e24565b613e8d81613e4e565b840191505092915050565b613ea181613d84565b82525050565b600061014082019050613ebd600083018d613df9565b8181036020830152613ecf818c613e5f565b9050613ede604083018b613df9565b8181036060830152613ef0818a613e5f565b90508181036080830152613f048189613e5f565b905081810360a0830152613f188188613e5f565b905081810360c0830152613f2c8187613e5f565b905081810360e0830152613f408186613e5f565b9050613f50610100830185613e98565b818103610120830152613f638184613e5f565b90509b9a5050505050505050505050565b613f7d81613def565b8114613f8857600080fd5b50565b600081359050613f9a81613f74565b92915050565b600060208284031215613fb657613fb5613d5a565b5b6000613fc484828501613f8b565b91505092915050565b6000608082019050613fe26000830187613df9565b613fef6020830186613e98565b81810360408301526140018185613e5f565b90506140106060830184613df9565b95945050505050565b600060e08201905061402e600083018a613df9565b81810360208301526140408189613e5f565b905061404f6040830188613df9565b81810360608301526140618187613e5f565b905081810360808301526140758186613e5f565b905081810360a08301526140898185613e5f565b905081810360c083015261409d8184613e5f565b905098975050505050505050565b60006020820190506140c06000830184613df9565b92915050565b600080fd5b600080fd5b7f4e487b7100000000000000000000000000000000000000000000000000000000600052604160045260246000fd5b61410882613e4e565b810181811067ffffffffffffffff82111715614127576141266140d0565b5b80604052505050565b600061413a613d50565b905061414682826140ff565b919050565b600067ffffffffffffffff821115614166576141656140d0565b5b61416f82613e4e565b9050602081019050919050565b82818337600083830152505050565b600061419e6141998461414b565b614130565b9050828152602081018484840111156141ba576141b96140cb565b5b6141c584828561417c565b509392505050565b600082601f8301126141e2576141e16140c6565b5b81356141f284826020860161418b565b91505092915050565b60008060008060008060c0878903121561421857614217613d5a565b5b600087013567ffffffffffffffff81111561423657614235613d5f565b5b61424289828a016141cd565b965050602061425389828a01613f8b565b955050604087013567ffffffffffffffff81111561427457614273613d5f565b5b61428089828a016141cd565b945050606087013567ffffffffffffffff8111156142a1576142a0613d5f565b5b6142ad89828a016141cd565b93505060806142be89828a01613dad565b92505060a087013567ffffffffffffffff8111156142df576142de613d5f565b5b6142eb89828a016141cd565b9150509295509295509295565b6000806000806000806000806000806101408b8d03121561431c5761431b613d5a565b5b600061432a8d828e01613f8b565b9a505060208b013567ffffffffffffffff81111561434b5761434a613d5f565b5b6143578d828e016141cd565b99505060406143688d828e01613f8b565b98505060608b013567ffffffffffffffff81111561438957614388613d5f565b5b6143958d828e016141cd565b97505060808b013567ffffffffffffffff8111156143b6576143b5613d5f565b5b6143c28d828e016141cd565b96505060a08b013567ffffffffffffffff8111156143e3576143e2613d5f565b5b6143ef8d828e016141cd565b95505060c08b013567ffffffffffffffff8111156144105761440f613d5f565b5b61441c8d828e016141cd565b94505060e08b013567ffffffffffffffff81111561443d5761443c613d5f565b5b6144498d828e016141cd565b93505061010061445b8d828e01613dad565b9250506101208b013567ffffffffffffffff81111561447d5761447c613d5f565b5b6144898d828e016141cd565b9150509295989b9194979a5092959850565b600060e08201905081810360008301526144b5818a613e5f565b90506144c46020830189613df9565b81810360408301526144d68188613e5f565b905081810360608301526144ea8187613e5f565b905081810360808301526144fe8186613e5f565b905061450d60a0830185613e98565b81810360c083015261451f8184613e5f565b905098975050505050505050565b600060c08201905081810360008301526145478189613e5f565b90506145566020830188613df9565b81810360408301526145688187613e5f565b9050818103606083015261457c8186613e5f565b905061458b6080830185613e98565b81810360a083015261459d8184613e5f565b9050979650505050505050565b60006080820190506145bf6000830187613df9565b6145cc6020830186613df9565b81810360408301526145de8185613e5f565b90506145ed6060830184613df9565b95945050505050565b600060e0820190508181036000830152614610818a613e5f565b905061461f6020830189613df9565b81810360408301526146318188613e5f565b905081810360608301526146458187613e5f565b905081810360808301526146598186613e5f565b905081810360a083015261466d8185613e5f565b905061467c60c0830184613e98565b98975050505050505050565b600080600080600080600080610100898b0312156146a9576146a8613d5a565b5b600089013567ffffffffffffffff8111156146c7576146c6613d5f565b5b6146d38b828c016141cd565b98505060206146e48b828c01613f8b565b975050604089013567ffffffffffffffff81111561470557614704613d5f565b5b6147118b828c016141cd565b965050606089013567ffffffffffffffff81111561473257614731613d5f565b5b61473e8b828c016141cd565b955050608089013567ffffffffffffffff81111561475f5761475e613d5f565b5b61476b8b828c016141cd565b94505060a089013567ffffffffffffffff81111561478c5761478b613d5f565b5b6147988b828c016141cd565b93505060c06147a98b828c01613dad565b92505060e089013567ffffffffffffffff8111156147ca576147c9613d5f565b5b6147d68b828c016141cd565b9150509295985092959890939650565b600060c08201905081810360008301526148008189613e5f565b905061480f6020830188613df9565b81810360408301526148218187613e5f565b905081810360608301526148358186613e5f565b905081810360808301526148498185613e5f565b905061485860a0830184613e98565b979650505050505050565b600080600080600080600060e0888a03121561488257614881613d5a565b5b600088013567ffffffffffffffff8111156148a05761489f613d5f565b5b6148ac8a828b016141cd565b97505060206148bd8a828b01613f8b565b965050604088013567ffffffffffffffff8111156148de576148dd613d5f565b5b6148ea8a828b016141cd565b955050606088013567ffffffffffffffff81111561490b5761490a613d5f565b5b6149178a828b016141cd565b945050608088013567ffffffffffffffff81111561493857614937613d5f565b5b6149448a828b016141cd565b93505060a06149558a828b01613dad565b92505060c088013567ffffffffffffffff81111561497657614975613d5f565b5b6149828a828b016141cd565b91505092959891949750929550565b600060a0820190506149a66000830188613df9565b6149b36020830187613e98565b81810360408301526149c58186613e5f565b90506149d46060830185613df9565b81810360808301526149e68184613e5f565b90509695505050505050565b60008060008060808587031215614a0c57614a0b613d5a565b5b6000614a1a87828801613f8b565b9450506020614a2b87828801613f8b565b935050604085013567ffffffffffffffff811115614a4c57614a4b613d5f565b5b614a58878288016141cd565b9250506060614a6987828801613f8b565b91505092959194509250565b6000610100820190508181036000830152614a90818b613e5f565b9050614a9f602083018a613df9565b8181036040830152614ab18189613e5f565b90508181036060830152614ac58188613e5f565b90508181036080830152614ad98187613e5f565b905081810360a0830152614aed8186613e5f565b9050614afc60c0830185613e98565b81810360e0830152614b0e8184613e5f565b90509998505050505050505050565b600060a0820190508181036000830152614b378188613e5f565b9050614b466020830187613df9565b8181036040830152614b588186613e5f565b90508181036060830152614b6c8185613e5f565b9050614b7b6080830184613e98565b9695505050505050565b600080600080600060a08688031215614ba157614ba0613d5a565b5b6000614baf88828901613f8b565b9550506020614bc088828901613dad565b945050604086013567ffffffffffffffff811115614be157614be0613d5f565b5b614bed888289016141cd565b9350506060614bfe88828901613f8b565b925050608086013567ffffffffffffffff811115614c1f57614c1e613d5f565b5b614c2b888289016141cd565b9150509295509295909350565b7f4e487b7100000000000000000000000000000000000000000000000000000000600052602260045260246000fd5b60006002820490506001821680614c7f57607f821691505b602082108103614c9257614c91614c38565b5b50919050565b7f4e487b7100000000000000000000000000000000000000000000000000000000600052603260045260246000fd5b7f4e487b7100000000000000000000000000000000000000000000000000000000600052601160045260246000fd5b6000614d0182613def565b91507fffffffffffffffffffffffffffffffffffffffffffffffffffffffffffffffff8203614d3357614d32614cc7565b5b600182019050919050565b60008190508160005260206000209050919050565b60006020601f8301049050919050565b600082821b905092915050565b600060088302614da07fffffffffffffffffffffffffffffffffffffffffffffffffffffffffffffffff82614d63565b614daa8683614d63565b95508019841693508086168417925050509392505050565b6000819050919050565b6000614de7614de2614ddd84613def565b614dc2565b613def565b9050919050565b6000819050919050565b614e0183614dcc565b614e15614e0d82614dee565b848454614d70565b825550505050565b600090565b614e2a614e1d565b614e35818484614df8565b505050565b5b81811015614e5957614e4e600082614e22565b600181019050614e3b565b5050565b601f821115614e9e57614e6f81614d3e565b614e7884614d53565b81016020851015614e87578190505b614e9b614e9385614d53565b830182614e3a565b50505b505050565b600082821c905092915050565b6000614ec160001984600802614ea3565b1980831691505092915050565b6000614eda8383614eb0565b9150826002028217905092915050565b614ef382613e08565b67ffffffffffffffff811115614f0c57614f0b6140d0565b5b614f168254614c67565b614f21828285614e5d565b600060209050601f831160018114614f545760008415614f42578287015190505b614f4c8582614ece565b865550614fb4565b601f198416614f6286614d3e565b60005b82811015614f8a57848901518255600182019150602085019450602081019050614f65565b86831015614fa75784890151614fa3601f891682614eb0565b8355505b6001600288020188555050505b50505050505056fea26469706673582212209a30976b213f3bead2cb2cb5e5a4ca43c1e38cc6af392a94a33256a4da6da06f64736f6c63430008100033",
  "immutableReferences": {},
  "source": "// SPDX-License-Identifier: MIT\n\npragma solidity ^0.8;\n\ncontract userRegister {\n    uint256 public _s_id = 0;\n    uint256 public _b_id = 0;\n    uint256 public _d_id = 0;\n    uint256 public _st_id = 0;\n    // structure for school\n    struct school {\n        uint256 s_id;\n        string s_name;\n        uint256 s_phone;\n        string s_email;\n        string s_state;\n        string s_district;\n        string s_block;\n        string s_address;\n        address sAddress;\n        string u_type;\n    }\n    mapping(address => school) public school_data;\n    school[] school_d;\n\n    //add_school through function\n    function add_school(\n        uint256 s_id,\n        string memory s_name,\n        uint256 s_phone,\n        string memory s_email,\n        string memory s_state,\n        string memory s_district,\n        string memory s_block,\n        string memory s_address,\n        address sAddress,\n        string memory u_type\n    ) public {\n        _s_id = _s_id++;\n        userRegister.school memory x = school(\n            s_id,\n            s_name,\n            s_phone,\n            s_email,\n            s_state,\n            s_district,\n            s_block,\n            s_address,\n            sAddress,\n            u_type\n        );\n        school_d.push(x);\n        school_data[sAddress] = x;\n    }\n\n    // structure for block\n    struct blocks {\n        string b_officername;\n        uint256 b_phone;\n        string b_email;\n        string b_state;\n        string b_district;\n        string b_name;\n        address b_Address;\n        string u_type;\n    }\n    mapping(address => blocks) public b_data;\n    blocks[] block_d;\n\n    //add_block officer through function\n    function add_block(\n        string memory b_officername,\n        uint256 b_phone,\n        string memory b_email,\n        string memory b_state,\n        string memory b_district,\n        string memory b_name,\n        address b_Address,\n        string memory u_type\n    ) public {\n        userRegister.blocks memory b = blocks(\n            b_officername,\n            b_phone,\n            b_email,\n            b_state,\n            b_district,\n            b_name,\n            b_Address,\n            u_type\n        );\n        block_d.push(b);\n        b_data[b_Address] = b;\n    }\n\n    // structure for district\n    struct district {\n        string d_officername;\n        uint256 d_phone;\n        string d_email;\n        string d_state;\n        string d_name;\n        address d_Address;\n        string u_type;\n    }\n    mapping(address => district) public d_data;\n    district[] district_d;\n\n    //add_district officer through function\n    function add_district(\n        string memory d_officername,\n        uint256 d_phone,\n        string memory d_email,\n        string memory d_state,\n        string memory d_name,\n        address d_Address,\n        string memory u_type\n    ) public {\n        userRegister.district memory d = district(\n            d_officername,\n            d_phone,\n            d_email,\n            d_state,\n            d_name,\n            d_Address,\n            u_type\n        );\n        district_d.push(d);\n        d_data[d_Address] = d;\n    }\n\n    // structure for district\n    struct state {\n        string st_officername;\n        uint256 st_phone;\n        string st_email;\n        string st_name;\n        address st_Address;\n        string u_type;\n    }\n    mapping(address => state) public st_data;\n    state[] state_d;\n\n    //add_state officer through function\n    function add_state(\n        string memory st_officername,\n        uint256 st_phone,\n        string memory st_email,\n        string memory st_name,\n        address st_Address,\n        string memory u_type\n    ) public {\n        userRegister.state memory st = state(\n            st_officername,\n            st_phone,\n            st_email,\n            st_name,\n            st_Address,\n            u_type\n        );\n        state_d.push(st);\n        st_data[st_Address] = st;\n    }\n\n    function checkschool(address acad) public view returns (uint256) {\n        uint256 _find = 0;\n        for (uint256 _i = 0; _i < school_d.length; _i++) {\n            if (school_d[_i].sAddress == acad) {\n                _find = 1;\n            }\n        }\n        return (_find);\n    }\n\n    //\n    function checkblock(address acad) public view returns (uint256) {\n        uint256 _find = 0;\n        for (uint256 _i = 0; _i < block_d.length; _i++) {\n            if (block_d[_i].b_Address == acad) {\n                _find = 1;\n            }\n        }\n        return (_find);\n    }\n\n    function checkdistrict(address acad) public view returns (uint256) {\n        uint256 _find = 0;\n        for (uint256 _i = 0; _i < district_d.length; _i++) {\n            if (district_d[_i].d_Address == acad) {\n                _find = 1;\n            }\n        }\n        return (_find);\n    }\n\n    function checkstate(address acad) public view returns (uint256) {\n        uint256 _find = 0;\n        for (uint256 _i = 0; _i < state_d.length; _i++) {\n            if (state_d[_i].st_Address == acad) {\n                _find = 1;\n            }\n        }\n        return (_find);\n    }\n\n    function showschool(address s_acad)\n        public\n        view\n        returns (\n            uint256,\n            string memory,\n            uint256,\n            string memory,\n            string memory,\n            string memory,\n            string memory\n        )\n    {\n        return (\n            school_data[s_acad].s_id,\n            school_data[s_acad].s_name,\n            school_data[s_acad].s_phone,\n            school_data[s_acad].s_email,\n            school_data[s_acad].s_state,\n            school_data[s_acad].s_district,\n            school_data[s_acad].s_block\n        );\n    }\n    function showschoolindex(uint256 ssindex) public view\n        returns (uint256, string memory, uint256, string memory, string memory, string memory, string memory)\n    {\n        return (\n            school_d[ssindex].s_id,\n            school_d[ssindex].s_name,\n            school_d[ssindex].s_phone,\n            school_d[ssindex].s_email,\n            school_d[ssindex].s_state,\n            school_d[ssindex].s_district,\n            school_d[ssindex].s_block\n        );\n    }\n\n    function showblock(address b_acad)\n        public\n        view\n        returns (\n            string memory,\n            uint256,\n            string memory,\n            string memory,\n            string memory,\n            string memory,\n            address\n        )\n    {\n        return (\n            b_data[b_acad].b_officername,\n            b_data[b_acad].b_phone,\n            b_data[b_acad].b_email,\n            b_data[b_acad].b_state,\n            b_data[b_acad].b_district,\n            b_data[b_acad].b_name,\n            b_data[b_acad].b_Address\n        );\n    }\n    function showdistrict(address d_acad)\n        public\n        view\n        returns (\n            string memory,\n            uint256,\n            string memory,\n            string memory,\n            string memory,\n            address\n        )\n    {\n        return (\n            d_data[d_acad].d_officername,\n            d_data[d_acad].d_phone,\n            d_data[d_acad].d_email,\n            d_data[d_acad].d_state,\n            d_data[d_acad].d_name,\n            d_data[d_acad].d_Address\n        );\n    }\n\n    function showstate(address st_acad)\n        public\n        view\n        returns (\n            string memory,\n            uint256,\n            string memory,\n            string memory,\n            address\n        )\n    {\n        return (\n            st_data[st_acad].st_officername,\n            st_data[st_acad].st_phone,\n            st_data[st_acad].st_email,\n            st_data[st_acad].st_name,\n            st_data[st_acad].st_Address\n        );\n    }\n    struct tender {\n        uint256 t_id;\n        address t_sid;\n        string  t_status;\n        uint256 t_amount;   \n        string t_timest; }\n    mapping(uint256 =>tender) public t_data;\n    tender[] tender_d;\n    function add_tender(\n        uint256 t_id,\n        address t_sid,\n        string memory t_status,\n        uint256 t_amount,\n        string memory t_timest\n    ) public {\n        userRegister.tender memory t = tender(\n            t_id,\n            t_sid,\n            t_status,\n            t_amount,\n            t_timest\n        );\n        tender_d.push(t);\n        t_data[t_id] = t;\n    }\n    function checktender(uint256 t_id) public view returns (uint256) {\n        uint256 _find = 0;\n        for (uint256 _i = 0; _i < tender_d.length; _i++) {\n            if (tender_d[_i].t_id == t_id) {\n                _find = 1;\n            }\n        }\n        return (_find);\n    }\n\n    function showtender(uint256 t_id)\n        public\n        view\n        returns (\n        uint256 ,\n        address ,\n        string memory ,\n        uint256 ,\n        string memory \n        )\n    {\n        return(\n            t_data[t_id].t_id,\n            t_data[t_id].t_sid,\n            t_data[t_id].t_status,\n            t_data[t_id].t_amount,\n            t_data[t_id].t_timest\n        );\n    }\n    struct tbill {\n        uint256 b_id;\n        uint256 b_tid;\n        string b_month;\n        uint256 b_amount; \n        }\n    mapping(uint256 =>tbill) public bill_data;\n    tbill[] bill_d;   \n    function add_bill(\n        uint256 b_id,\n        uint256 b_tid,\n        string memory b_month,\n        uint256 b_amount\n    ) public {\n        userRegister.tbill memory bi = tbill(\n            b_id,\n            b_tid,\n            b_month,\n            b_amount\n        );\n        bill_d.push(bi);\n        bill_data[b_id] = bi;\n    }\n\n\n\n    function getTenderSize() public view returns(uint) {\n        uint _size;\n        _size = tender_d.length;\n        return (_size);\n    }\n    function getTengder(uint _i) public view returns(uint, address,string memory, uint) {\n        return(tender_d[_i].t_id,tender_d[_i].t_sid,tender_d[_i].t_status,tender_d[_i].t_amount);\n    }\n\n    ///////////////////////////////////////\n//  function stender(address _add) public returns(int _id){\n//      string memory blockname= b_data[_add].b_name;\n//      uint size=block_d.length;\n//      for(uint i=0;i<school_d.length; i++){\n//         if(school_d[_add].s_block==blockname){\n            \n//         }\n//      }\n\n//  }\n\n\n    /////////////////////////////////////\n}\n",
  "sourcePath": "/home/star/Documents/GitHub/pmposhan/contracts/userRegister.sol",
  "compiler": {
    "name": "solc",
    "version": "0.8.16+commit.07a7930e.Emscripten.clang"
  },
  "schemaVersion": "3.4.9",
  "updatedAt": "2022-09-22T15:24:02.460Z",
  "networkType": "ethereum",
  "devdoc": {
    "kind": "dev",
    "methods": {},
    "version": 1
  },
  "userdoc": {
    "kind": "user",
    "methods": {},
    "version": 1
  }
}